:020000040800F2
:10000000008001206D6E0008E9270008EB2700083A
:10001000ED270008EF270008F12700080000000086
:10002000000000000000000000000000F3270008AE
:10003000F527000800000000F7270008F92700084E
:10004000BD6E0008BD6E0008BD6E0008BD6E0008E4
:10005000BD6E0008BD6E0008BD6E0008BD6E0008D4
:10006000BD6E0008BD6E0008BD6E0008BD6E0008C4
:10007000BD6E0008BD6E0008BD6E0008BD6E0008B4
:10008000BD6E0008BD6E0008BD6E0008BD6E0008A4
:10009000BD6E0008BD6E0008BD6E00080128000896
:1000A000BD6E0008BD6E0008BD6E0008BD6E000884
:1000B000BD6E0008BD6E0008BD6E0008BD6E000874
:1000C000BD6E0008BD6E0008BD6E0008BD6E000864
:1000D000BD6E0008BD6E0008BD6E0008BD6E000854
:1000E000BD6E0008BD6E0008BD6E0008BD6E000844
:1000F000BD6E0008BD6E0008BD6E0008BD6E000834
:10010000BD6E0008BD6E0008BD6E0008BD6E000823
:10011000BD6E0008BD6E000815280008BD6E000801
:10012000BD6E0008BD6E0008BD6E0008BD6E000803
:10013000BD6E0008BD6E0008BD6E0008BD6E0008F3
:10014000BD6E0008BD6E0008BD6E0008BD6E0008E3
:10015000BD6E0008BD6E0008BD6E0008BD6E0008D3
:10016000BD6E0008BD6E0008BD6E0008BD6E0008C3
:10017000BD6E0008BD6E0008000000000000000019
:08018000BD6E0008BD6E000811
:1001900010B5054C237833B9044B13B10448AFF3C1
:1001A00000800123237010BD2805002000000000FE
:1001B0005878000808B5034B1BB103490348AFF357
:1001C000008008BD000000002C05002058780008C1
:1001D000034613F8012B002AFBD1181A0138704787
:1001E00001F0FF01102A2BDB10F0070F08D010F8E8
:1001F000013B013A8B422DD010F0070F42B3F6D1EC
:10020000F0B441EA012141EA014122F007047FF004
:1002100000070023F0E80256083C85EA010586EA5B
:10022000010685FA47F5A3FA87F586FA47F6A5FA97
:1002300087F68EB9EED1F0BC01F0FF0102F00702A3
:1002400032B110F8013B013A83EA010313B1F8D14E
:100250000020704701387047002D06BF354603382F
:10026000073815F0010F07D1013015F4807F02BF68
:10027000013015F4C03F0130F0BC0138704700BFB9
:1002800053B94AB9002908BF00281CBF4FF0FF31FD
:100290004FF0FF3000F070B9ADF1080C6DE904CEFD
:1002A00000F006F8DDF804E0DDE9022304B0704751
:1002B0002DE9F047089E0D4604460F46002B4AD113
:1002C0008A42944665D9B2FA82F343B102FA03FC3A
:1002D000C3F120029F4020FA02F217439C404FEAEC
:1002E0001C4E1FFA8CF5B7FBFEF1220C0EFB1177AA
:1002F00042EA074201FB05F090420AD91CEB0202D8
:1003000001F1FF3780F01C81904240F219810239DF
:100310006244121AA4B2B2FBFEF00EFB102244EAB1
:10032000024400FB05F5A5420AD91CEB040400F1C8
:10033000FF3280F00781A54240F204816444023814
:1003400040EA0140641B00211EB1DC400023C6E9E5
:100350000043BDE8F0878B4208D9002E00F0ED8005
:100360000021C6E900050846BDE8F087B3FA83F12D
:10037000002949D1AB4202D3824200F2F880841AAC
:1003800065EB030201201746002EE2D0C6E90047C4
:10039000DFE702B9FFDEB2FA82F3002B40F0908073
:1003A0008A1A4FEA1C471FFA8CFE0121B2FBF7F5AF
:1003B00007FB1520220C42EA00420EFB05F090429A
:1003C00008D91CEB020205F1FF3802D2904200F27C
:1003D000CB804546121AA4B2B2FBF7F007FB1022FD
:1003E00044EA02440EFB00FEA64508D91CEB0404B7
:1003F00000F1FF3202D2A64500F2BB801046A4EB0A
:100400000E0440EA05409FE7C1F120078B4022FA25
:1004100007FC4CEA030C05FA01F420FA07F3FD404F
:100420004FEA1C492343B5FBF9F81FFA8CFE09FB80
:1004300018551C0C44EA054408FB0EF5A54202FAC7
:1004400001F200FA01F00BD91CEB040408F1FF3AA9
:1004500080F08880A54240F28580A8F102086444BB
:10046000641B9DB2B4FBF9F309FB134445EA044451
:1004700003FB0EFEA64508D91CEB040403F1FF356F
:100480006CD2A6456AD9023B644443EA0843A3FB05
:100490000295A4EB0E04AC42C846AE4656D353D0E8
:1004A00056B1B0EB080264EB0E0404FA07F7CA4039
:1004B000CC401743C6E9007418460021BDE8F08718
:1004C000C3F1200102FA03FC20FA01F225FA01F13E
:1004D0009D402A434FEA1C471FFA8CFEB1FBF7F000
:1004E00007FB1015110C41EA054100FB0EF58D428A
:1004F00004FA03F408D91CEB010100F1FF382FD2F4
:100500008D422DD902386144491B92B2B1FBF7F5F7
:1005100007FB151142EA014205FB0EF1914208D991
:100520001CEB020205F1FF3816D2914214D9023DAC
:100530006244521A45EA004138E73146304608E73E
:100540003946E6E61046FBE64845A9D2B9EB020873
:1005500065EB0C0E013BA3E74546EAE72B4694E723
:100560004046D1E7D0467BE7023D624432E7084689
:100570000AE76444023842E7704700BF08B5054BFC
:100580001978B1FA81F149091970022000F098FF39
:1005900008BD00BF4405002008B50121022000F07D
:1005A0008FFF4FF4FA7200230649002002F0A2F9EF
:1005B0000021032000F084FF0349022001F0D0FE57
:1005C00008BD00BF7D050008B91200087047000093
:1005D0002DE9F0418AB00023099340214F4803F0F0
:1005E000A9F928B94E4B5B682BB90AB0BDE8F08178
:1005F00000F0F6F9F9E74A4B00225A6009A801F029
:1006000007FC484CBDF9243000930D23464A474966
:10061000204600F0B3FC0A2002F088FF06A801F093
:100620009DFB9DED060A0923414A4249204600F000
:1006300071FD0A2002F07AFF07A801F049FB9DED49
:10064000070A08233C4A3D49204600F063FD0A2082
:1006500002F06CFF0DF1120205A90DF1160001F078
:100660001DFCDFF81081364DBDF9163000930A23CA
:1006700042463449284600F081FC334FBDF914301E
:1006800000930A233A463149284600F077FC304E61
:10069000BDF9123000930A2332462E49284600F055
:1006A0006DFC08A801F05CF99DED080A0A232A4AAE
:1006B0002A49204600F02EFD0A2002F037FF03AA47
:1006C0000DF10E0104A801F0A5FC254CBDF9103078
:1006D00000930A2342462349204600F04FFCBDF90F
:1006E0000E3000930A233A461F49204600F046FC8C
:1006F000BDF90C3000930A2332461C49204600F015
:100700003DFC01F071FB099BB3F5FA7F01DD4FF46D
:10071000FA73174A1268536367E700BF0010004876
:100720004405002064060020AC010020780600206B
:10073000440100206C0600206801002070060020A3
:100740007C06002084060020D002002088060020BD
:10075000F40200208C06002088010020740600208E
:1007600090060020980600209C060020A00600208D
:10077000C0080020AC02002030BF70472DE9F041D6
:1007800088B006460D46344B93E8030006908DF87A
:100790001C104021314803F0CDF8002859D0052025
:1007A00002F0C4FE2E4F00224FF40051384603F0F1
:1007B000C8F8DFF8B08001240094052304AA06A934
:1007C000404605F068F922464FF40051384603F0E0
:1007D000B8F8204602F0AAFE00224FF40051384635
:1007E00003F0AFF80094052304AA06A9404605F0DB
:1007F00052F99DF813309DF8142043EA0223FF229A
:100800008DF80F20AB4200DC1D46002D18DD0024C2
:1008100008E00123009332190DF10F01114805F092
:100820003AF90134A542F4DC01224FF400510C489E
:1008300003F087F800200C4B186008B0BDE8F08189
:1008400001224FF40051064803F07BF84FF0FF30CF
:10085000F3E76FF00100F0E770780008001000483F
:10086000000C0048C40700204C05002000239342E0
:100870000FDA00B510F803E011F803C0E64505D122
:1008800001339342F6DB00205DF804FB4FF0FF30AC
:10089000FAE700207047000070B586B005460C46A8
:1008A000194B93E8030004908DF8141000224FF4C4
:1008B0000051164803F045F801230093052302AACE
:1008C00004A9134805F0E7F89DF80A209DF80930BF
:1008D00043EA0223A3420EDA4FF0FF3601224FF41F
:1008E00000510A4803F02DF80A4B00221A60002E2E
:1008F000DCD106B070BD0123A2B22946044804F041
:10090000C9FF0026EAE700BF78780008000C00481D
:10091000C40700204C05002070B5122006F0D0FA64
:1009200004462B4E334607CB20606160A2601B78E3
:1009300023730023A373E3732374637463730E231D
:10094000F3761B23F3741F2006F0BAFA054606F16E
:10095000100307CB28606960AA601B782B7320689E
:100960006168A268E368C5F80D00C5F81110C5F804
:100970001520C5F81930238AA5F81D301F212846F7
:10098000FFF78AFF072006F09BFA0646114B1B680B
:10099000002BFBD007213046FFF7F0FE50B90722AD
:1009A0000D493046FFF762FF20B90C4A138843F027
:1009B00080031380304606F08BFA284606F088FA4A
:1009C000204606F085FA0A2002F0B0FD70BD00BF97
:1009D000000000204C0500202000002050050020D1
:1009E00008B57F210648FFF7C9FE28B9032205494B
:1009F0000348FFF73BFF00B108BDFFF78DFFFBE7A2
:100A00005405002028000020F8B517461E46FFF7C1
:100A100043FF069D06EB4505284606F051FA114BAB
:100A2000C3F80401002440210F4802F083FF20B9DD
:100A3000013447F230508442F5DD2946094BD3F8A2
:100A40000401FFF79BFE044638B932463946054B90
:100A5000D3F80401FFF70AFF04460A2002F066FDFE
:100A60002046F8BD500500200010004830B583B086
:100A70000D46164CD0F800E0D0F804C08168C36879
:100A8000C4F831E0C4F835C0C4F83910C4F83D30BA
:100A900084F8422001230093072304F14402172124
:100AA00004F12C00FFF7B0FF40B9094BD3F8042143
:100AB000D2792A70D3F804311B7A6B70044BD3F8C7
:100AC000040106F005FA03B030BD00BF00000020AD
:100AD0005005002070B582B00D461B4C0668D0F85A
:100AE00004E0D0F808C0C168C4F85360C4F857E007
:100AF000C4F85BC0C4F85F10117884F850105278C5
:100B000084F8512084F863309DF8183084F86530FB
:100B100001230093072304F16C021E2104F14C0011
:100B2000FFF772FF40B9094BD3F80421D2792A703C
:100B3000D3F804311B7A6B70044BD3F8040106F030
:100B4000C7F902B070BD00BF0000002050050020B2
:100B5000F0B583B01E46DBB29D1D1C4C84F8775067
:100B6000057884F87850407884F87900087884F81B
:100B70007A00497884F87B1084F87C2084F87D30F2
:100B800006F10A07384606F09BF9054604F174039E
:100B900003CB286069601B882B813246089905F1D8
:100BA0000A0006F0F5FA00230093072304F16C0213
:100BB00039462846FFF728FF284606F089F9044BF6
:100BC000D3F8040106F084F903B0F0BD0000002062
:100BD000500500202DE9F04383B0062006F070F99F
:100BE000D34BC3F80401D34B1B68002BFBD0062169
:100BF000FFF7C4FD60B90622CF49CD4BD3F80401FD
:100C0000FFF734FE20B9CA4A138843F0010313806A
:100C10000A2002F08BFCC64BD3F8040106F058F909
:100C2000C64800230093072300F18C02042194306E
:100C3000FFF7EAFE20B9BE4A138843F0020313808F
:100C4000BB4BD3F8040106F043F9BC4803230093DF
:100C5000072300F198021946A030FFF7D5FE90B99E
:100C6000B34B1A8842F004021A80D3F80421B2F878
:100C70000710A3F80811B2F80910A3F80C11B2F884
:100C80000B20A3F81021AA4CD4F8040106F020F997
:100C9000AA4D00950D23002204F5867104F5847099
:100CA000FFF756FF238843F008032380D4F804019C
:100CB00006F00EF900230093072305F1A802102186
:100CC00005F1B000FFF7A0FE18B9238843F0100328
:100CD0002380974BD3F8040106F0FAF897480023D5
:100CE0000093072300F1C0020621C830FFF78CFEF5
:100CF00020B98F4A138843F0200313808C4BD3F81C
:100D0000040106F0E5F88D4800230093072300F165
:100D1000D0022421D830FFF777FE20B9844A138807
:100D200043F040031380824DD5F8040106F0D0F85B
:100D3000FFF7F2FD05F58A77804C0F22394604F162
:100D4000FC00FFF793FE05F58C764FF00208CDF816
:100D5000008016233A46314604F58670FFF7BAFE46
:100D600004F58E7300931623002231463846FFF7B0
:100D7000EFFE05F58E791226009611233A46494674
:100D800004F59A70FFF7A6FE04F5A27300931123F1
:100D9000002249463846FFF7DBFE05F590790096BC
:100DA00010233A46494604F5AC70FFF793FE04F56C
:100DB000B47300931023002249463846FFF7C8FE5B
:100DC00005F59279009633463A46494604F5BC70DB
:100DD000FFF780FE04F5C4730093334600224946B2
:100DE0003846FFF7B5FE05F59479009614233A4688
:100DF000494604F5CE70FFF76DFE04F5D6730093F7
:100E00001423002249463846FFF7A2FE05F59677DF
:100E10000C22394604F5E070FFF728FE05F59879B5
:100E2000CDF8008018233A46494604F5E870FFF7EC
:100E300051FE04F5F073009318230022494638460A
:100E4000FFF786FE05F59A79009611233A46494642
:100E500004F5FC70FFF73EFE04F5027300931123C6
:100E6000002249463846FFF773FE05F59C79009647
:100E700011233A46494604F50770FFF72BFE04F5A7
:100E80000B7300931123002249463846FFF760FE9A
:100E900005F59E79009611233A46494604F51070EF
:100EA000FFF718FE04F5147300931123002249463E
:100EB0003846FFF74DFE05F5A0770C22394604F5BC
:100EC0001970FFF7D3FD05F5A279CDF8008017233F
:100ED0003A46494604F51D70FFF7FCFD04F5217301
:100EE00000931723002249463846FFF731FE05F5E7
:100EF000A478009611233A46414604F52770FFF77F
:100F0000E9FD04F52B730093112300224146384676
:100F1000FFF71EFE05F5A678009611233A464146D6
:100F200004F53070FFF7D6FD04F5347308E000BF18
:100F3000500500204C050020840000200000002007
:100F400000931123002241463846FFF701FE05F5C4
:100F5000A875009611233A46294604F53970FFF723
:100F6000B9FD04F53D74009411230022294638464A
:100F7000FFF7EEFD03B0BDE8F08300BF2DE9F047B9
:100F800084B00746884614461E46BDF930A003F1DA
:100F90000709484605F094FF05463246214606F00B
:100FA000F7F8BAF1000F67DB2B238DF80830554BAB
:100FB00083FB0A234FEAEA72C2EBA312D2B28DF886
:100FC0000920514C02FB04F40AEB04034F4981FB56
:100FD0000301DB17C3EB6113DBB28DF80A306FF04E
:100FE000630101FB03A10C44494981FB0401E4179F
:100FF000C4EBA104E4B28DF80B40C4EB4411C4EB84
:10100000810103EB830CC3EBCC0C4FEA8C0C0CEB93
:10101000410CD44402EB4201C90051FA8CFC5FFA46
:101020008CFC8DF80CC07AB330328DF80920303347
:101030008DF80A3030348DF80B400CF1300C8DF8FF
:101040000CC022238DF80D307D238DF80E30002446
:10105000C4F1070202A9A81906F09AF80095A9EBB5
:101060000403002241463846FFF772FD284605F08A
:101070002FFF04B0BDE8F0872D238DF80830CAF1AA
:10108000000A0FFA8AFA92E73BBB94B90CF1300CD4
:101090008DF809C022238DF80A307D238DF80B309E
:1010A00020238DF80C308DF80D308DF80E30032490
:1010B000CEE730348DF809400CF1300C8DF80AC0C1
:1010C00022238DF80B307D238DF80C3020238DF8F2
:1010D0000D308DF80E300224BAE730338DF8093028
:1010E00030348DF80A400CF1300C8DF80BC02223FF
:1010F0008DF80C307D238DF80D3020238DF80E30C7
:101100000124A5E7D34D621018FCFFFF1F85EB51AA
:10111000676666662DE9F0432DED028B85B00646C5
:101120000F4691461D46B0EE408A03F1080840463E
:1011300005F0C6FE04462A46494606F029F8F2EEB6
:10114000047A28EE278ABDEEC88A18EE103A19B242
:1011500000296FDB2B238DF80830534B83FB0123D1
:10116000CA17C2EBA312D2B28DF809204F4B03FB72
:1011700002FC01EB0C034E4880FB03E0DB17C3EBE2
:101180006013DBB28DF80A306FF0630000FB0310D0
:101190008444484880FB0CE04FEAEC7CCCEBA00C8C
:1011A0005FFA8CFC8DF80BC0CCEB4C10CCEB8000C4
:1011B00003EB830EC3EBCE0E4FEA8E0E0EEB400E0A
:1011C0008E4402EB4201C90051FA8EFE5FFA8EFE98
:1011D0008DF80DE0A2B330328DF8092030338DF850
:1011E0000A300CF1300C8DF80BC02E238DF80C302A
:1011F0000EF1300E8DF80DE022238DF80E307D2398
:101200008DF80F304FF00009C9F1080202A96019EA
:1012100005F0BEFF0094A8EB0903002239463046D2
:10122000FFF796FC204605F053FE05B0BDEC028B9F
:10123000BDE8F0832D238DF80830494209B28CE7D0
:10124000C3B90CF1300C8DF809C02E238DF80A308B
:101250000EF1300E8DF80BE022238DF80C307D233B
:101260008DF80D3020238DF80E308DF80F304FF0B3
:101270000209C9E730338DF809300CF1300C8DF8D4
:101280000AC02E238DF80B300EF1300E8DF80CE0D5
:1012900022238DF80D307D238DF80E3020238DF81C
:1012A0000F304FF00109AFE7D34D621018FCFFFF7C
:1012B0001F85EB516766666608B5012000F010F9DE
:1012C000024620B1054B1B782BB1002000E0002026
:1012D000024B1A7008BD0120FAE700BFC2060020C9
:1012E00010B590B03C4CD4ED007AFDEEE77A17EEE5
:1012F000902A3A4903A805F0D7FE03A801F062FB43
:10130000D4ED017AFDEEE77A17EE902A344903A86E
:1013100005F0CAFE03A801F055FBD4ED027AFDEEFC
:10132000E77A17EE902A2F4903A805F0BDFE03A81F
:1013300001F048FBE36893ED007AD3ED016AD3ED49
:10134000027AFDEEE77ACDED007AFDEEE67A17EE51
:10135000903AFDEEC77A17EE902A234903A805F0CC
:10136000A3FE03A801F02EFB236993ED007AD3EDD1
:10137000016AD3ED027AFDEEE77ACDED007AFDEE5B
:10138000E67A17EE903AFDEEC77A17EE902A1749E3
:1013900003A805F089FE03A801F014FB636993ED2F
:1013A000007AD3ED016AD3ED027AFDEEE77ACDED56
:1013B000007AFDEEE67A17EE903AFDEEC77A17EE68
:1013C000902A0B4903A805F06FFE03A801F0FAFA72
:1013D00001F0E6FA10B010BDC4060020C87800087D
:1013E000DC780008EC780008FC7800081879000820
:1013F0003079000808B540F6B832002306490020CD
:1014000001F078FA0021032000F05AF800210220B0
:1014100000F056F808BD00BFE112000810B5012029
:1014200000F070F80C4C84ED000A002000F06AF81F
:1014300084ED010A022000F065F884ED020A002024
:1014400000F070F82061022000F06CF8E0600120EC
:1014500000F068F8606110BDC40600207047704756
:1014600010B501F08FFF094C094B236001F0FAFF22
:10147000084B636001F0D6FF074BA36001F01EFF2D
:1014800001F04CFF01F09EFF10BD00BFE006002000
:10149000B1330008893400085134000810B4074CF7
:1014A00000EB400304EBC30319619A8283ED080B40
:1014B00083ED061B5DF8044B704700BFE00600207B
:1014C00008B50A46054B00EB400C03EBCC0CBCF80E
:1014D0001410DCF8100002F034FA08BDE006002019
:1014E000072801D90020704708B5054B00EB4002E2
:1014F00003EBC202918A106902F01CFA08BD00BF1A
:10150000E0060020022805D808B5044B53F8203027
:10151000984708BD9FED020A704700BFE006002013
:101520000000CA43022827D810B5012804D0022899
:101530000CD038B100231BE0104C204601F018FFFE
:10154000204618E00E4801F063FFF3E70C4801F075
:10155000DBFEEFE70B4A02EB4301B1F9DC1007EECB
:10156000901A02EB8302F8EEE77AC2ED347A013387
:10157000022BEFDD014810BD00207047B0070020AE
:10158000BC070020E00600202DE9F0438BB00024CA
:1015900005940694079408940994454BDA6C42F03C
:1015A0001002DA64DA6C02F010020092009ADA6C2F
:1015B00042F00202DA64DA6C02F002020192019A4D
:1015C000DA6C42F00802DA64DA6C02F00802029285
:1015D000029ADA6C42F00402DA64DA6C02F0040275
:1015E0000392039ADA6C42F00102DA64DB6C03F0D6
:1015F00001030493049BDFF8C89001224FF40051CB
:10160000484602F09EF92B4E22464021304602F019
:1016100098F901224FF480714FF0904002F091F957
:101620004FF04008CDF81480234B0693079405A98A
:10163000224801F0FBFF4FF400570597012506955E
:1016400007940323089305A9484601F0EFFFCDF85E
:10165000148006950794089405A9304601F0E6FF2A
:101660004FF48073059306950794089405A94FF0ED
:10167000904001F0DBFF2023059306950794089422
:1016800005A94FF0904001F0D1FF0597069407940B
:1016900005A9304601F0CAFF22462146172001F075
:1016A0006BFF172001F0A0FF0BB0BDE8F08300BF77
:1016B000001002400008004800001110001000480F
:1016C000000C004872B6FEE708B50F480F4B0360E8
:1016D0004FF482734360002383604FF4E062C26082
:1016E000036143614FF400728261C361036243622C
:1016F00083620722C26203630823436304F05BF83A
:1017000000B908BDFFF7DEFFC4070020003C004021
:1017100008B51248124B4366124B83660023C3661A
:101720000122026743678367C367C0F88030C0F84F
:101730008430643002F0D4FA50B900210A4802F033
:101740006FFE38B90021084802F098FE20B908BDA4
:10175000FFF7B8FFFFF7B6FFFFF7B4FFC40700209D
:10176000005800400E0900202808002000B585B070
:1017700000230193029303931148124AC0F8B0204A
:1017800040F69F72C0F8B420C0F8B8304FF47A72B7
:10179000C0F8BC20C0F8C830B03004F09BFD50B990
:1017A00000230193039301A9074804F091FF20B996
:1017B00005B05DF804FBFFF785FFFFF783FF00BF6F
:1017C000C4070020001000407408002010B596B037
:1017D00000241394149415940C940D940E940F9467
:1017E0001094119412942C22214601A805F07CFC3F
:1017F0002448254BC0F8FC306423C0F80031C0F801
:1018000004414FF4FA73C0F80831C0F80C41C0F835
:101810001041C0F81441FC3004F08CFD002829D19F
:1018200000231393159313A9184804F051FF18BB14
:1018300060230C9300220D920E920F92109211923F
:1018400012920CA9114804F0EBFDB8B900230193E2
:1018500002930393049305934FF4005206920B9363
:1018600001A90A4804F080FF50B9084800F092FF2F
:1018700016B010BDFFF726FFFFF724FFFFF722FF8A
:10188000FFF720FFC407002000400140C0080020EF
:1018900000B5B9B04422002127A805F025FC00219D
:1018A000229123912491259126918822684605F062
:1018B0001BFC1023279301232D9370232F9327A81C
:1018C00002F0FAFED0B90F23229300212391249134
:1018D0002591269122A803F005FA88B98023009368
:1018E00000231593684603F033FC58B94FF4007099
:1018F00002F0F8FD40B939B05DF804FBFFF7E2FEF5
:10190000FFF7E0FEFFF7DEFEFFF7DCFE08B501F0B3
:10191000EBFDFFF7BDFFFFF737FEFFF7D5FEFFF743
:10192000F7FEFFF723FFFFF751FF00F053FD012003
:1019300000F094FDFBE7000000B585B042F2100313
:10194000ADF80C3001230093022303AABA21034807
:1019500002F03EFA05B05DF804FB00BF2808002045
:10196000F0B587B0074628238DF8143029238DF869
:1019700010302A238DF80C30224D012600960223C8
:1019800005AABA21284602F023FA0096022302AAE9
:10199000BB21284602F01CFA9DF80840009602235D
:1019A00004AABA21284602F013FA0096022302AADA
:1019B000BB21284602F00CFA9DF8083044EA0324C3
:1019C0000096022303AABA21284602F001FA0096E3
:1019D000022302AABB21284602F0FAF99DF808303A
:1019E00044EA0343B3F5000F00DB5B4207EE903A95
:1019F000F8EEE77A9FED047A67EE877AC7ED007A12
:101A000007B0F0BD280800200000803970B58EB006
:101A100048F22013ADF83430AB4E01240094022379
:101A20000DAABE21304602F0D3F932238DF82C30B6
:101A300033238DF82830009423460BAABE2130466C
:101A400002F0C6F9009423460CAABF21304602F0EA
:101A50007DFA9DF830309D4D2B60009423460AAAF4
:101A6000BE21304602F0B4F9009423460CAABF21EF
:101A7000304602F06BFA9DF830306B6035238DF8FC
:101A800024300094234609AABE21304602F0A0F972
:101A9000009423460CAABF21304602F057FA9DF865
:101AA00030301A0202F4407229680A432A609B10FF
:101AB0001B0203F4407369680B436B60D2102A6009
:101AC000DB106B603C238DF820303D238DF81C30FB
:101AD0000094234608AABE21304602F079F900940A
:101AE00023460CAABF21304602F030FA9DF8303070
:101AF0002B810094234607AABE21304602F068F9E4
:101B0000009423460CAABF21304602F01FFA9DF82C
:101B100030202B8943EA02232B813E238DF8183095
:101B20003F238DF814300094234606AABE21304688
:101B300002F04EF9009423460CAABF21304602F071
:101B400005FA9DF830306B810094234605AABE212A
:101B5000304602F03DF9009423460CAABF213046DE
:101B600002F0F4F99DF830206B8943EA02231BB29E
:101B70006B816A682968521A07EE902AB8EEE77AF4
:101B8000B5F908209B1A07EE903AF8EEE77AC7EE0F
:101B9000276AC5ED036A30238DF8103031238DF8A4
:101BA0000C300094234604AABE21304602F010F9FE
:101BB000009423460CAABF21304602F0C7F99DF8D5
:101BC00030302B740094234603AABE21304602F025
:101BD000FFF8009423460CAABF21304602F0B6F964
:101BE0009DF830306B742A7CE2402A74E3406B74B9
:101BF00036238DF8203037238DF81C30009423468F
:101C000008AABE21304602F0E3F8009423460CAA4D
:101C1000BF21304602F09AF99DF830306B82009473
:101C2000234607AABE21304602F0D2F8009423468C
:101C30000CAABF21304602F089F99DF830206B8A4A
:101C400043EA02236B823A238DF818303B238DF848
:101C500014300094234606AABE21304602F0B8F89C
:101C6000009423460CAABF21304602F06FF99DF87C
:101C70003030AB820094234605AABE21304602F0E4
:101C8000A7F8009423460CAABF21304602F05EF963
:101C90009DF83020AB8A43EA02231BB2AB826A7CF8
:101CA000297C521A07EE902AB8EEE77AB5F912208D
:101CB0009B1A07EE903AF8EEE77AC7EE276AC5ED71
:101CC000066A0EB070BD00BF2808002090090020F1
:101CD000F0B587B0074628238DF8143029238DF8F6
:101CE00010301C4E01240094234605AABE21304624
:101CF00002F06EF80094234603AABF21304602F09A
:101D000025F99DF80C500094234604AABE213046C4
:101D100002F05EF80094234603AABF21304602F089
:101D200015F99DF80C3045EA430307EE903AF8EEBA
:101D3000E77A094B93ED067A67EE877A1B7C07EE0C
:101D4000103AB8EEC77A77EE277AC7ED007A07B077
:101D5000F0BD00BF2808002090090020F0B587B032
:101D600007462A238DF814302B238DF810301C4E93
:101D7000012500952B4605AABE21304602F028F821
:101D800000952B4603AABF21304602F0DFF89DF8EC
:101D90000C4000952B4604AABE21304602F018F8EC
:101DA00000952B4603AABF21304602F0CFF89DF8DC
:101DB0000C3044EA032424B207EE904AF8EEE77AA6
:101DC000084B93ED037A67EE877A93ED007AB8EECD
:101DD000C77A77EE277AC7ED007A07B0F0BD00BF6B
:101DE000280800209009002000B585B04FF48073CA
:101DF000ADF80C3001230093022303AA52210348BB
:101E000001F0E6FF05B05DF804FB00BF28080020E4
:101E100070B584B004461E238DF80C300023ADF855
:101E20000830134E012500952B4603AA5221304657
:101E300001F0CEFF0095022302AA5321304602F0A2
:101E400085F89DF808209DF8093003EB0223143B28
:101E50002360002B08DB2368B3F5FA6F02DD4FF433
:101E6000FA63236004B070BD00232360F3E700BF72
:101E70002808002000B585B041F21003ADF80C3001
:101E800001230093022303AAD421034801F0A0FFF9
:101E900005B05DF804FB00BF280800202DE9F041E3
:101EA00084B080460F46164628238DF80C304F4DDF
:101EB00001240094234603AAD421284601F088FF78
:101EC0000094234602AAD521284602F03FF89DF847
:101ED0000830A8F8003029238DF80C3000942346F0
:101EE00003AAD421284601F073FF0094234602AAD6
:101EF000D521284602F02AF89DF80820B8F80030CD
:101F000043EA0223A8F800302A238DF80C3000940D
:101F1000234603AAD421284601F05AFF0094234601
:101F200002AAD521284602F011F89DF808303B801E
:101F30002B238DF80C300094234603AAD421284685
:101F400001F046FF0094234602AAD521284601F05D
:101F5000FDFF9DF808203B8843EA02233B802C23A9
:101F60008DF80C300094234603AAD421284601F0B2
:101F70002FFF0094234602AAD521284601F0E6FF50
:101F80009DF8083033802D238DF80C3000942346C3
:101F900003AAD421284601F01BFF0094234602AA7D
:101FA000D521284601F0D2FF9DF80820338843EA66
:101FB00002233380B8F90030002B11DB1B11A8F885
:101FC0000030B7F90030002B0CDB1B113B80B6F959
:101FD0000030002B08DB1B11338004B0BDE8F0811A
:101FE0000F33EBE70F33F0E70F33F4E72808002057
:101FF00000B585B02223ADF80C30012300930223F5
:1020000003AA3C21024801F0E3FE05B05DF804FBA1
:10201000280800202DE9F04184B080460F4616467E
:1020200028238DF80C304F4D01240094234603AA39
:102030003C21284601F0CCFE0094234602AA3D2113
:10204000284601F083FF9DF80830A8F800302923C6
:102050008DF80C300094234603AA3C21284601F059
:10206000B7FE0094234602AA3D21284601F06EFFE8
:102070009DF80820B8F8003043EA0223A8F80030A1
:102080002A238DF80C300094234603AA3C212846CD
:1020900001F09EFE0094234602AA3D21284601F04D
:1020A00055FF9DF808303B802B238DF80C300094B1
:1020B000234603AA3C21284601F08AFE00942346C9
:1020C00002AA3D21284601F041FF9DF808203B88E7
:1020D00043EA02233B802C238DF80C3000942346E6
:1020E00003AA3C21284601F073FE0094234602AA6D
:1020F0003D21284601F02AFF9DF8083033802D232A
:102100008DF80C300094234603AA3C21284601F0A8
:102110005FFE0094234602AA3D21284601F016FFE7
:102120009DF80820338843EA02233380B8F9003051
:10213000002B11DBDB10A8F80030B7F90030002BC2
:102140000CDBDB103B80B6F90030002B08DBDB102A
:10215000338004B0BDE8F0810733EBE70733F0E7E5
:102160000733F4E72808002010B52DED048B9FED10
:10217000529B9FED538B544CB0EE491AF0EE691A06
:10218000B0EE480AF0EE680A4FF4005221460120F2
:10219000FFF784F9B0EE491AF0EE691AB0EE480A7A
:1021A000F0EE680A20224FF090410220FFF776F906
:1021B000B0EE491AF0EE691AB0EE480AF0EE680A7D
:1021C0004FF4804241490320FFF768F9B0EE491A05
:1021D000F0EE691AB0EE480AF0EE680A40223C4977
:1021E0000420FFF75BF9B0EE491AF0EE691AB0EE81
:1021F000480AF0EE680A4FF4005236490520FFF70E
:102200004DF9B0EE491AF0EE691AB0EE480AF0EE58
:10221000680A4FF480724FF090410620FFF73EF9B4
:10222000B0EE491AF0EE691AB0EE480AF0EE680A0C
:102230004FF4807221460720FFF730F900F03CFB95
:1022400000F0CAFBFFF70CF900210320FFF738F973
:10225000C8220023022000F0A5F800224FF480716C
:102260004FF0904001F06DFB0A2001F05FF9012270
:102270004FF480714FF0904001F063FBFEF7AAFC31
:1022800001224021204601F05CFB0A2001F04EF9BA
:10229000FFF7AAFDFFF750FB0F4803F09FFE002158
:1022A0000E4804F061F9FFF7B1FBFFF7E3FDFFF71C
:1022B0009FFEBDEC048B10BD000000000000F03F4D
:1022C0000000000000000000000800480004004872
:1022D00000100048000C004874080020C0080020CE
:1022E00070477047704700000D4B83620D4BC3620F
:1022F0000D4B03630D4B43630D4B03650D4B436562
:102300000D4B83650D4BC3650D4B83670D4BC36749
:102310000D4BC0F880300D4BC0F88430704700BFC3
:1023200069210008E1220008E3220008E5220008F4
:10233000F51300081D1400085D1400085F14000860
:1023400099050008CD050008D105000879070008A7
:102350000138C0B202288CBF002001207047000065
:1023600038B505460C46FFF7F3FF48B144B1054ABE
:10237000137A03EB830102EBC1010C6281F8305048
:1023800038BD00BFB009002010B50446FFF7E0FFDC
:1023900028B1034B1A7A83F8B0201C72012010BDBB
:1023A000B009002070B5064615461C46FFF7D0FF61
:1023B00060B155EA040309D0054B197A01EB81029B
:1023C00003EBC20282F830609562D46270BD00BF38
:1023D000B009002010B5204C04F11000FFF784FF75
:1023E000204600F0ADFA012384F8B13007E0002068
:1023F000194991F8B120024081F8B1200133032B33
:1024000025DC03EB8302D100134A0A44002000219B
:10241000C2E90A01002182F8301011621269002A13
:10242000E5D003EB8302D1000B4A0A44526952B152
:10243000094A0A44926942B1074A0A44D269002A09
:10244000D6D00120D4E70020D2E70020D0E7012039
:10245000FFF79AFF10BD00BFB00900205D4B93F855
:10246000B130002B00F0B480F0B589B00446594B70
:10247000187AFFF76DFF08B909B0F0BD00F06AFAED
:10248000544B93F8B220104483F8B20093F8B33061
:102490006BB3504B1968586800220B1880F0888085
:1024A00013444D4DA5FB032626F0030202EB9602D2
:1024B0009B1ACB1A60F100064FF0CC3203FB02F2FC
:1024C00005FB0622A3FB05352A445B0843EAC273D9
:1024D0005208960046EA93769D00ED1842EB0603FB
:1024E0006D195B41491B60EB0300014362D0394B1E
:1024F0001D7A93F8B0309D420DD0364E0022002355
:10250000C6E9002305EB850306EBC3031B69984767
:10251000337A86F8B0302F4B93F8B230A34210D301
:102520002C4F05EB850607EBC606736920469847D6
:10253000B36920469847F36920469847002387F8F7
:10254000B23005EB8502234B03EBC20393F8304016
:102550002046FFF7FDFE00288ED01E4B1B7A9C42C2
:102560008AD005EB85021B4B03EBC2039A6ADB6A38
:1025700052EA030105D01749086849689042994119
:1025800022D205EB8502134B03EBC2031B6A002B1F
:102590003FF472AF984700283FF46EAF05EB850516
:1025A0000C4B03EBC50393F83000FFF7EDFE63E738
:1025B000012275E7074B1A7A0849684604F074FD52
:1025C000684600F0EDF992E72046FFF7DDFED8E718
:1025D000704700BFB0090020CDCCCCCC44790008B6
:1025E00082B00A4B1A6E42F001021A661A6E02F0AD
:1025F00001020092009A9A6D42F080529A659B6D9A
:1026000003F080530193019B02B070470010024019
:1026100010B588B0002303930493059306930793A2
:102620000268144B9A4201D008B010BD124CE36C02
:1026300043F00203E364E36C03F002030193019BA4
:102640004FF4406303931223049301230593032360
:1026500006930423079303A9084800F0E7FFA36D3E
:1026600043F48003A365A36D03F480030293029BEC
:10267000DAE700BF005800400010024000040048A4
:1026800002680B4B9A4200D0704710B5094A936D0F
:1026900023F480039365084C4FF48061204601F0D9
:1026A000B1F84FF40061204601F0ACF810BD00BF56
:1026B00000580040001002400004004800B589B0F6
:1026C0000023039304930593069307930268144B26
:1026D0009A4202D009B05DF804FB03F5EA339A6D23
:1026E00042F400429A659A6D02F400420192019A06
:1026F000DA6C42F00402DA64DB6C03F00403029348
:10270000029B4FF4E05303930223049303230693A5
:102710000623079303A9034800F088FFDAE700BF08
:10272000003C00400008004802680E4B9A4200D06E
:10273000704700B583B003F500339A6D42F0100284
:102740009A659B6D03F010030193019B00221146D3
:10275000362000F011FF362000F046FF03B05DF890
:1027600004FB00BF001000400268094B9A4200D0F1
:10277000704782B003F550431A6E42F480321A66F5
:102780001B6E03F480330193019B02B0704700BFBE
:102790000040014000B587B00023019302930393EA
:1027A0000493059302680E4B9A4202D007B05DF87D
:1027B00004FB03F55043DA6C42F00202DA64DB6C8E
:1027C00003F002030093009B4FF480430193022324
:1027D00002930E23059301A9024800F027FFE5E7C5
:1027E0000040014000040048FEE7FEE7FEE7FEE788
:1027F000FEE770477047704708B500F085FE08BDDA
:1028000008B5034B01221A60402001F0A1F808BD71
:102810004C05002008B5034B01221A60024803F062
:1028200028FC08BD480500207408002008B50346B0
:102830000B4A126842B10A4A106803446A4693423E
:1028400006D8074A136008BD054A06491160F2E739
:1028500004F072FC0C2303604FF0FF30F3E700BF7D
:10286000640A0020D80C00200F49D1F8883043F4C6
:102870007003C1F888300D4B1A6842F001021A60EB
:10288000002098601A6822F0A85222F410221A60E0
:102890004FF48052DA601A6822F480221A6098613C
:1028A0004FF000638B60704700ED00E000100240C5
:1028B000B0FA80F040097047002303B170470C491B
:1028C00003EB4300C2000A449FED077B82ED007BCF
:1028D00082ED047BC200114400228A600133DBB226
:1028E000EBE700BFAFF30080000000000000000035
:1028F000700A0020F8B504460D4617461E46FFF73D
:10290000D7FF68B165B10D4B04EB440203EBC20283
:1029100000200021C2E90001956017615661F8BDF1
:10292000064B04EB440203EBC20200200021C2E983
:10293000000100259560C2E90401F0E7700A00205B
:10294000034B986100220023C0E90023704700BFB9
:10295000700A0020014B187F704700BF700A0020EA
:1029600070B505460E46FDF733FC04463046FDF7CC
:102970002FFC0444E1B2284604F05EFB31462846B1
:1029800004F0BAFB70BD000010B5044C206804F0E0
:102990009FFA012004F094FA206010BDA00A0020E4
:1029A00010B5064B1C682046FDF712FC4FF47A73F5
:1029B00082B22146024804F084F910BDA00A00202A
:1029C0000C09002008B50146024B1868FFF7C8FF44
:1029D00008BD00BFA00A002008B50C480C4B0360DE
:1029E0004FF4E133436000238360C36003610C2232
:1029F00042618361C3610362436204F006FA10B965
:102A0000FFF7C2FF08BDFEF75DFEF9E70C090020E5
:102A10000038014010B5C4B22021204600F028FC47
:102A200000F0F80242F085022021204600F00CFC64
:102A300010BD10B5C4B22021204600F019FC00F0F2
:102A4000F80242F085022021204600F0FDFB10BD77
:102A500010B5044600F0F0FB0F21E0B200F008FCD6
:102A600010BD00002DE9F04383B05FFA80F9022326
:102A700001AAB021484600F011FC9DF804305F081F
:102A80009DF805607608022301AAB621484600F0A9
:102A900005FC9DF805502D022DB29DF804301D4314
:102AA000022301AABA21484600F0F8FB9DF8054030
:102AB000240224B29DF804301C43022301AAA82159
:102AC000484600F0EBFB9DF805301B021BB29DF859
:102AD000042013435B1B07EE903AF8EEE77AF61BEF
:102AE00007EE106AB8EEC77A67EE877A641B07EEC6
:102AF000104AB8EEC77A87EE870A07EE907AF8EEAA
:102B0000E77A70EE277AB2EE047A67EE877A9FED65
:102B10000C7AF4EEC77AF1EE10FA07DCF5EEC07A23
:102B2000F1EE10FA04D5DFED077A01E0DFED047A6B
:102B3000B2EE040A87EE800A03B0BDE8F08300BF5E
:102B400000007A44000000002DE9F04182B05FFAF5
:102B500080F8022301AAB221404600F09FFB3521F4
:102B6000404600F085FB070207F440779DF80430EB
:102B70001F43840104F440749DF805301C43FF0892
:102B8000E40804230DEB0302BC21404600F086FB61
:102B90009DF80560360236B29DF804301E439DF85C
:102BA00007502D022DB29DF806301D43022301AAC5
:102BB000AA21404600F072FB9DF805301B021BB2B3
:102BC0009DF8042013439B1B07EE903AF8EEE77A3A
:102BD000E41B07EE104AB8EEC77A67EE877AAD1BA2
:102BE00007EE105AB8EEC77AC7EE876A07EE907AFA
:102BF000B8EEE70A36EE800A02B0BDE8F08100B513
:102C000083B002AB03E903009DF8002020213C20A3
:102C100000F01AFB9DF8012021213C2000F014FB5C
:102C20009DF8022022213C2000F00EFB9DF803209D
:102C300023213C2000F008FB9DF8042024213C20A7
:102C400000F002FB03B05DF804FB08B522213C2034
:102C500000F00EFB00F0FC0242F0030222213C20B7
:102C600000F0F2FA08BD10B5044622213C2000F025
:102C7000FFFA00F0DF020CB142F0200222213C20DA
:102C800000F0E2FA10BD08B500F0D6FA0F213C20A2
:102C900000F0EEFA08BD000030B585B004462121F1
:102CA0003C2000F0E5FA054606236A46A8213C20B0
:102CB00000F0F4FA00230FE05A0002F11101694418
:102CC00011F8100C10326A4412F8101C01EB0021AC
:102CD00022F8081C0133DBB2022BEDD905F06005A8
:102CE000402D0CD006D86DB1202D0ED19FED157A58
:102CF000002323E0602D0BD19FED137AF8E79FEDC1
:102D0000137AF5E79FED127AF2E79FED127AEFE77B
:102D10009FED107AECE704AA02EB430232F9082C8B
:102D200007EE902AF8EEE77A67EE877AFDEEE77A0B
:102D300017EE902A24F813200133DBB2022BEAD9D4
:102D400005B030BDE17A943EE17A143FF628DC3ECE
:102D5000295C0F3E0000000030B583B0054600241A
:102D60000CE004F12801C9B2E8B200F081FA04F1E4
:102D700008036B4403F8040C0134E4B2022CF0D9CC
:102D800000231A4609E003F10801694411F8041C04
:102D9000D80081400A430133DBB2022BF3D912F48D
:102DA000000F01D042F07F42642303FB02F2002AAD
:102DB0000ADB121307EE902AB8EEE70ADFED047A79
:102DC00080EE270A03B030BD02F6FF72F1E700BFC4
:102DD0000000C84230B583B0054600240CE004F181
:102DE0002B01C9B2E8B200F043FA04F108036B44C6
:102DF00003F8040C0134E4B2012CF0D99DF805204D
:102E00009DF8043003EB02239BB2074A82FB0323A5
:102E10009B0800EE103AB8EEC00AF2EE047A80EE9B
:102E2000270A03B030BD00BF6766666610B5C4B23E
:102E30001A21204600F01CFA00F0FE0242F00102C6
:102E40001A21204600F000FA1021204600F010FA66
:102E500000F08D0242F032021021204600F0F4F919
:102E600010BD08B5FFF7E2FF08BD08B5FFF7DEFFAC
:102E700008BD10B5044600F0DFF90F21E0B200F004
:102E8000F7F910BD10B504461021D42000F0F0F978
:102E9000E2B200F0030002431021D42000F0D4F984
:102EA0001221D42000F0E4F900F0BB0242EA14221F
:102EB0001221D42000F0C8F910BD08B51021D4208B
:102EC00000F0D6F900F00F021021D42000F0BCF978
:102ED00008BD10B504461521D42000F0C9F900F052
:102EE000EF020CB142F010021521D42000F0ACF931
:102EF00010BD10B504461121D42000F0B9F9E2B29A
:102F000000F0030002431121D42000F09DF91221AA
:102F1000D42000F0ADF900F0BB0242EA14221221E5
:102F2000D42000F091F910BD08B51121D42000F093
:102F30009FF900F00F021121D42000F085F908BD9F
:102F400010B504461621D42000F092F900F07F025B
:102F50000CB142F080021621D42000F075F910BDAA
:102F600008B500F069F90F21D42000F081F908BDFF
:102F700008B500F061F90F21D42000F079F908BDFF
:102F800030B585B004461021D42000F071F9054613
:102F900006236A462821D42000F080F900230FE0A0
:102FA0005A0002F11101694411F8100C10326A4400
:102FB00012F8101C01EB002122F8081C0133DBB2CF
:102FC000022BEDD905F00C050C2D08D8DFE805F033
:102FD00014070707110707070B0707070E009FEDE8
:102FE000137A00231EE09FED127AFAE79FED117A23
:102FF000F7E79FED117AF4E79FED107AF1E704AA65
:1030000002EB430232F9082C07EE902AF8EEE77A39
:1030100067EE877AFDEEE77A17EE902A24F8132000
:103020000133DBB2022BEAD905B030BD000000004D
:1030300023DBF93D23DB793E23DBF93E23DB793DBE
:1030400030B585B004461121D42000F011F90546B1
:1030500006236A462221D42000F020F900230FE045
:103060005A0002F11101694411F8100C10326A443F
:1030700012F8101C01EB002122F8081C0133DBB20E
:10308000022BEDD905F00C050C2D08D8DFE805F072
:10309000140707070B0707070E07070711009FED27
:1030A000127A00231CE09FED117AFAE79FED107A67
:1030B000F7E79FED107AF4E79FED0F7AF1E704AAA6
:1030C00002EB430232F9082C07EE902A04EB83024C
:1030D000F8EEE77A67EE877AC2ED007A0133DBB269
:1030E000022BECD905B030BD0000000000008C417F
:1030F00000000C4200008C4200000C4130B589B049
:10310000204CE36C43F00203E364E36C03F002033E
:103110000193019B4FF44063039312230493012313
:1031200005930323069304230793174D03A9284609
:1031300000F07CFA03A9284600F078FAA36D43F466
:103140008003A365A36D03F480030293029BA36B2A
:1031500043F48003A363A36B23F48003A3630022DF
:103160000F21212000F008FA212000F03DFA002272
:103170000F21222000F000FA222000F035FA09B0D9
:1031800030BD00BF001002400004004838B50446BE
:103190000A4B03600A4B4360002585600123C3602E
:1031A00005614561C5610562FFF7A8FF204600F093
:1031B00097FD2946204601F033F938BD00580040FC
:1031C0008126700010B5044600F0E8FD2046FFF7A8
:1031D000DDFF10BD70B584B005460C464FF47A7122
:1031E0000291BDF82410019108990091214600F048
:1031F0006BFF064610B9304604B070BD2146284624
:10320000FFF7E0FFF7E770B584B005460C464FF4D2
:103210007A710291BDF8241001910899009121461C
:1032200001F026F8064610B9304604B070BD2146BC
:103230002846FFF7C7FFF7E708B50248FFF7A6FFE4
:1032400008BD00BFA40A002000B585B08DF80F208E
:10325000012301930DF10F0200920A460146034833
:10326000FFF7B8FF05B05DF804FB00BFA40A00201B
:1032700000B585B00A4600238DF80F300123019375
:103280000DF10F01009101460348FFF7BCFF9DF8C7
:103290000F0005B05DF804FBA40A002000B583B060
:1032A0000193009201230A4601460348FFF7ABFF52
:1032B00080B203B05DF804FBA40A002010B582B010
:1032C0000F4B9B6898476A2802D0012002B010BDBE
:1032D0000B4B0C4A136030228DF8012000248DF82E
:1032E00002408DF8064040228DF804208DF80340FE
:1032F0008DF807401B6844F2304098472046E5E7C8
:103300009C040020740B002008B5034B1B6813B10C
:103310001B6B03B1984708BD740B002010B582B039
:10332000114B9B6898476A2802D0012002B010BD5B
:103330000D4B0E4A136000248DF8004030228DF8AA
:1033400001208DF802408DF8034040228DF80420C2
:103350008DF805400C228DF806201B6844F23C4095
:1033600098472046E2E700BF68040020780B002061
:1033700008B5034B1B6813B11B6B03B1984708BD1D
:10338000780B002008B5084B5B68BE209847BC2826
:1033900001D0012008BD044B044A13601B68BE2005
:1033A00098470020F6E700BF0C0400207C0B0020AB
:1033B00008B5034B1B689B68BE20984708BD00BF3B
:1033C0007C0B002010B582B00F4B9B6898473D28BE
:1033D00002D0012002B010BD0B4B0C4A13605822E2
:1033E0008DF8002000248DF801408DF8024008225D
:1033F0008DF8032040228DF804201B6802AA12E9F0
:10340000030098472046E5E718040020800B0020C1
:1034100008B5034B1B6813B11B6B03B1984708BD7C
:10342000800B002008B5084B5B68BA209847B1288C
:1034300001D0012008BD044B044A13601B68BA2068
:1034400098470020F6E700BF5C040020840B0020B2
:1034500008B5034B1B689B68BA20984708BD00BF9E
:10346000840B002010B5064C064B2360FFF7E4FEEA
:1034700023681B680021BE209847002010BD00BFB4
:10348000880B0020FC03002008B5034B1B68DB6899
:10349000BE20984708BD00BF880B0020104B1B784A
:1034A0000BB90120704710B504464FF47A70B0FB99
:1034B000F3F30C4A1068B0FBF3F000F0A3F868B91E
:1034C0000F2C01D901200AE0002221464FF0FF30E5
:1034D00000F052F8024B5C60002000E0012010BDBB
:1034E000D0040020F803002010B5032000F032F8CB
:1034F0000020FFF7D3FF10B10124204610BD044681
:10350000FFF76EF8F9E70000034B1B78034A1168D8
:103510000B441360704700BFD00400208C0B0020C8
:10352000014B1868704700BF8C0B002038B504466B
:10353000FFF7F6FF0546B4F1FF3F02D0044B1B78BE
:103540001C44FFF7EDFF401BA042FAD338BD00BF7B
:10355000D0040020074AD36823F4E0631B041B0C4B
:10356000000200F4E060034343F0BF6343F4003320
:10357000D360704700ED00E000B5194BDB68C3F382
:103580000223C3F1070CBCF1040F28BF4FF0040C59
:1035900003F1040EBEF1060F18D9033B4FF0FF3EB6
:1035A0000EFA0CFC21EA0C0199400EFA03FE22EA05
:1035B0000E020A4300280BDB1201D2B200F1604078
:1035C00000F5614080F800235DF804FB0023E5E787
:1035D00000F00F001201D2B2024B1A54F4E700BF00
:1035E00000ED00E014ED00E0002807DB00F01F0212
:1035F000400901239340024A42F82030704700BF3F
:1036000000E100E00138B0F1807F0BD24FF0E02301
:103610005861054AF02182F82310002098610722A2
:103620001A6170470120704700ED00E0F0B583B0EB
:1036300000233FE0C56A25EA0C05C4F3C0049C40A2
:103640002C43C46262E0062400E00024B4403C4302
:103650000235684E46F82540674C2568D44325EA74
:1036600002064F6817F4803F01D042EA0506624D1A
:103670002E606D6804EA05064F6817F4003F01D01C
:1036800042EA05065C4D6E60AD6804EA05064F68C7
:1036900017F4801F01D042EA0506574DAE60ED6871
:1036A0002C404E6816F4001F01D042EA0504524A2D
:1036B000D46001330A6832FA03F400F098804FF0C6
:1036C000010C0CFA03FC1CEA0202F2D04C68651EE5
:1036D000012D03D9112C01D0122C12D185685E0066
:1036E0000324B44025EA0405CC68B4402C4384602C
:1036F000456825EA0C054C68C4F300149C402C4333
:1037000044604C6804F00305032D93D0C5684FEA6C
:10371000430E032404FA0EF46FEA040C25EA0405B0
:103720008C6804FA0EF42C43C4604C68022C01D05F
:10373000122C0FD1DD08083550F8257003F007066C
:10374000B6000F24B44027EA04070C69B4403C4398
:1037500040F8254004680CEA040C4C6804F00304AB
:1037600004FA0EF444EA0C0404604C6814F0805F20
:103770009FD0224C256E45F001052566246E04F08D
:1037800001040194019C9D08AE1C1A4C54F826704B
:1037900003F00306B6000F24B44027EA0407B0F193
:1037A000904F3FF452AF164CA04216D004F58064FF
:1037B000A04214D004F58064A04212D004F58064C5
:1037C000A04210D004F58064A0420ED004F58064BD
:1037D000A0423FF438AF072438E7012436E702243B
:1037E00034E7032432E7042430E705242EE703B04E
:1037F000F0BD00BF00000140000401400010024085
:1038000000040048002331FA03F200F08B80F0B589
:1038100032E0062500E0002505FA0CF5A54265D04A
:1038200004685D004FF0030C0CFA05FC44EA0C043C
:1038300004604FEAD30E0EF1080E50F82E4003F04C
:103840000706B6000F25B54024EA050440F82E40CF
:10385000846824EA0C048460446824EA0204446016
:10386000C46824EA0C04C460C46A24EA0202C26286
:10387000013331FA03F254D001229A4012EA0107CF
:10388000F6D04FEA930E0EF10205274C54F825406E
:1038900003F0030C4FEA8C0C0F2505FA0CF63440AC
:1038A000B0F1904FB7D0214DA84215D005F58065F5
:1038B000A84213D005F58065A84211D005F58065B2
:1038C000A8420FD005F58065A8420DD005F58065AA
:1038D000A8429ED007259FE701259DE702259BE78B
:1038E000032599E7042597E7052595E7104C2568FA
:1038F00025EA07052560656825EA07056560A5686E
:1039000025EA0705A560E56825EA0705E560064F95
:103910000EF1020457F8245025EA060547F8245012
:103920007EE7F0BD704700BF000001400004004882
:10393000000401400369194201D0012070470020B2
:1039400070470AB18161704781627047704700001B
:1039500008B5054B5B69034200D108BD024B5861B5
:10396000FFF7F4FFF9E700BF0004014003689A691C
:1039700012F0020F01D000229A6203689A6912F0D5
:10398000010F03D19A6942F001029A61704730B485
:10399000029D046860684FEA555C0CF4806C4CF042
:1039A0007F7C4CF4583C4CF47F7C4CF0030C20EAB8
:1039B0000C00C1F3090141EA0241194329430843BC
:1039C000606030BC7047F8B505460E461746036880
:1039D0009B6913F0100F01D10020F8BD2B689C6982
:1039E00014F0200F17D1B6F1FF3FF7D0FFF798FD85
:1039F000C01BB04201D8002EF0D16B6C43F0200305
:103A00006B64202385F84130002385F8423085F827
:103A100040300120E1E71022DA612B682024DC61CC
:103A20002846FFF7A3FF2A68536823F0FF7323F4A7
:103A30008B3323F4FF7323F0010353606B6C43F06B
:103A400004036B6485F84140002385F8423085F813
:103A500040300120C1E770B504460D461646236884
:103A60009B6913F0020F1DD1324629462046FFF70D
:103A7000AAFFC8B9B5F1FF3FF1D0FFF751FD801B98
:103A8000A84201D8002DEAD1636C43F0200363649F
:103A9000202384F84130002384F8423084F84030F9
:103AA000012000E0002070BD0120FCE72DE9F0417D
:103AB0000646884617461D463468A46938EA040459
:103AC0000CBF01240024BC4218D1B5F1FF3FF3D054
:103AD000FFF726FD069BC01AA84201D8002DEBD1A6
:103AE000736C43F020037364202386F84130002375
:103AF00086F8423086F84030012000E00020BDE822
:103B0000F08100002DE9F04182B0044690461D4648
:103B1000089E099F194B00934FF08073EAB2FFF79C
:103B200036FF3A4631462046FFF795FFF8B9012D9A
:103B30000ED123685FFA88F29A620097334600221A
:103B400080212046FFF7B2FFA8B902B0BDE8F0819E
:103B500023684FEA18229A623A4631462046FFF718
:103B60007AFF30B923685FFA88F29A62E5E70120AC
:103B7000EBE70120E9E70120E7E700BF0020008034
:103B80002DE9F04182B0044690461D46089E099FEB
:103B9000184B00930023EAB2FFF7F9FE3A4631468C
:103BA0002046FFF758FFF8B9012D0ED123685FFAC0
:103BB00088F29A6200973346002240212046FFF7A0
:103BC00075FFA8B902B0BDE8F08123684FEA18225A
:103BD0009A623A4631462046FFF73DFF30B92368E6
:103BE0005FFA88F29A62E5E70120EBE70120E9E756
:103BF0000120E7E70020008070B505460C46164618
:103C00002B689B6913F0200F1AD1324621462846B3
:103C1000FFF7D9FEB0B9FFF783FC801BA04201D8A3
:103C2000002CEDD16B6C43F020036B64202385F8EE
:103C30004130002385F8423085F84030012070BDC6
:103C40000020FCE70120FAE770B504460D46164651
:103C500023689B6913F0040F3ED132462946204663
:103C6000FFF7B1FE0146002838D123689A6912F0A7
:103C7000200F13D1FFF754FC801BA84201D8002D60
:103C8000E6D1636C43F020036364202384F8413061
:103C9000002384F840300121084670BD9A6912F073
:103CA000040F02D0228D002AF6D12022DA61216889
:103CB0004B6823F0FF7323F48B3323F4FF7323F05B
:103CC00001034B600023636484F8412084F8423090
:103CD00084F840300121DFE70021DDE70121DBE747
:103CE000002859D010B5044690F84130002B43D03D
:103CF000242384F841302268136823F00103136001
:103D00006368226823F0706313612268936823F468
:103D100000439360E368012B33D0A368226843F427
:103D200004439360E368022B31D02268536843F068
:103D3000007343F4004353602268D36823F40043C4
:103D4000D360236962691343A169226843EA0123AE
:103D5000D360E369216A22680B4313602268136809
:103D600043F00103136000206064202384F8413095
:103D7000206384F8420010BD80F84030FEF748FC14
:103D8000B6E7A368226843F400439360CAE7236858
:103D90004FF400625A60C8E701207047A8B110B51F
:103DA0000446242380F841300268136823F001039D
:103DB0001360FEF765FC0020606484F84100206316
:103DC00084F8420084F8400010BD012070470000D4
:103DD0002DE9F04782B00F460A9E90F84110C9B213
:103DE000202940F0A38004469046994690F8403040
:103DF000012B00F09F804FF0010A80F840A0FFF7F0
:103E00008FFB05460090192352464FF4004120468F
:103E1000FFF74CFE002840F08F80212384F84130CA
:103E2000102384F8423000236364C4F82480A4F88B
:103E30002A906363638D9BB2FF2B0AD9FF222285F0
:103E4000414B00934FF0807339462046FFF79FFDAA
:103E500018E0628D92B222853B4B00934FF00073C5
:103E6000D2B239462046FFF792FD0BE0628D92B246
:103E70002285002300934FF00073D2B239462046CA
:103E8000FFF785FD638D9BB2002B33D02A46314668
:103E90002046FFF7E0FD002850D1626A23681278BF
:103EA0009A62636A01336362638D9BB2013B9BB28A
:103EB0006385238D013B9BB22385628D92B2002ADC
:103EC000E0D0002BDED10095334600228021204631
:103ED000FFF7ECFDA0BB638D9BB2FF2BC6D9FF2281
:103EE0002285002300934FF0807339462046FFF768
:103EF0004EFDC7E72A4631462046FFF77DFE08BB48
:103F000023682022DA6121684B6823F0FF7323F4D1
:103F10008B3323F4FF7323F001034B6084F84120BB
:103F2000002384F8423084F8403000E0022002B0E0
:103F3000BDE8F0870220FAE70120F8E70120F6E764
:103F40000120F4E70120F2E7002000802DE9F0478E
:103F500082B00F460A9E90F84110C9B2202940F065
:103F6000A28004469046994690F84030012B00F01C
:103F70009E804FF0010A80F840A0FFF7D1FA054675
:103F80000090192352464FF400412046FFF78EFD62
:103F9000002840F08E80222384F84130102384F8DA
:103FA000423000236364C4F82480A4F82A90636339
:103FB000638D9BB2FF2B0AD9FF222285414B0093D0
:103FC0004FF0807339462046FFF7E1FC18E0628D20
:103FD00092B222853B4B00934FF00073D2B2394628
:103FE0002046FFF7D4FC0BE0628D92B222850023BD
:103FF00000934FF00073D2B239462046FFF7C7FC5A
:10400000638D9BB2002B32D02A4631462046FFF703
:104010001BFE00284FD123685A6A636A1A70636ACC
:1040200001336362228D013A92B22285638D9BB285
:10403000013B9BB26385638D9BB2002BE0D0002ACD
:10404000DED10095334680212046FFF72FFDA0BB2F
:10405000638D9BB2FF2BC7D9FF22228500230093DB
:104060004FF0807339462046FFF791FCC8E72A4697
:1040700031462046FFF7C0FD08BB23682022DA61E5
:1040800021684B6823F0FF7323F48B3323F4FF7311
:1040900023F001034B6084F84120002384F8423070
:1040A00084F8403000E0022002B0BDE8F087022032
:1040B000FAE70120F8E70120F6E70120F4E7012004
:1040C000F2E700BF002400802DE9F04F83B00E46D8
:1040D000BDF834A00E9D90F84110C9B2202940F0DF
:1040E000BB800446904699460C9BCBB1BAF1000FB9
:1040F00016D090F84030012B00F0B2804FF0010B49
:1041000080F840B0FFF70CFA0746009019235A4692
:104110004FF400412046FFF7C9FC30B101209CE07C
:104120004FF400736364012097E0212384F8413049
:10413000402384F84230002363640C9A6262A4F83E
:104140002AA06363019700954B46424631462046BC
:10415000FFF7D8FC70B9638D9BB2FF2B0FD9FF22FC
:104160002285002300934FF0807331462046FFF7ED
:104170000EFC21E0002384F8403058466DE0628D4B
:1041800092B22285002300934FF00073D2B23146E1
:104190002046FFF7FCFB0FE0628D92B222850023E0
:1041A00000934FF00073D2B231462046FFF7EFFB89
:1041B000638D9BB2002B33D03A4629462046FFF749
:1041C0004AFC00284ED1626A236812789A62636AB8
:1041D00001336362638D9BB2013B9BB26385238D88
:1041E000013B9BB22385628D92B2002AE0D0002B66
:1041F000DED100972B46002280212046FFF756FC97
:1042000090BB638D9BB2FF2BC6D9FF222285002372
:1042100000934FF0807331462046FFF7B8FBC7E7A5
:104220003A4629462046FFF7E7FCF8B923682022E2
:10423000DA6121684B6823F0FF7323F48B3323F496
:10424000FF7323F001034B6084F84120002384F8BE
:10425000423084F8403000E0022003B0BDE8F08F27
:104260000220FAE70120F8E70120F6E70120F4E751
:104270002DE9F04F83B00E46BDF834A00E9D90F8A6
:104280004110C9B2202940F0BC80044690469946AE
:104290000C9BCBB1BAF1000F16D090F84030012B37
:1042A00000F0B3804FF0010B80F840B0FFF738F911
:1042B0000746009019235A464FF400412046FFF765
:1042C000F5FB30B101209DE04FF4007363640120E1
:1042D00098E0222384F84130402384F842300023C0
:1042E00063640C9A6262A4F82AA063630197009544
:1042F0004B46424631462046FFF742FC70B9638D7B
:104300009BB2FF2B0FD9FF222285444B00934FF025
:10431000807331462046FFF73AFB21E0002384F802
:10432000403058466EE0628D92B222853B4B00933E
:104330004FF00073D2B231462046FFF728FB0FE062
:10434000628D92B22285002300934FF00073D2B2A7
:1043500031462046FFF71BFB638D9BB2002B34D008
:1043600000972B46002204212046FFF79FFB0028E0
:104370004DD123685A6A636A1A70636A01336362B3
:10438000228D013A92B22285638D9BB2013B9BB292
:104390006385638D9BB2002BDED0002ADCD10097B1
:1043A0002B4680212046FFF781FB90BB638D9BB29B
:1043B000FF2BC5D9FF222285002300934FF0807385
:1043C00031462046FFF7E3FAC6E73A46294620463B
:1043D000FFF712FCF8B923682022DA6121684B68E4
:1043E00023F0FF7323F48B3323F4FF7323F00103D3
:1043F0004B6084F84120002384F8423084F8403038
:1044000000E0022003B0BDE8F08F0220FAE70120AF
:10441000F8E70120F6E70120F4E700BF0024008060
:10442000034690F84120D2B2202A23D190F84020B0
:10443000012A21D0012280F84020242280F8412046
:104440000068026822F0010202601868026822F423
:1044500080520260186802681143016019680A6896
:1044600042F001020A60202283F84120002083F8F4
:10447000400070470220704702207047034690F8C2
:104480004120D2B2202A21D190F84020012A1FD009
:10449000012280F84020242280F841200068026830
:1044A00022F0010202601868026822F4706242EA97
:1044B0000122026019680A6842F001020A602022A3
:1044C00083F84120002083F84000704702207047A5
:1044D00002207047024B186800F4C060704700BFAC
:1044E00000700040B0F5007F0FD01F4B1B6803F435
:1044F000C063B3F5806F34D01B4A136823F4C063E4
:1045000043F48063136000207047174B1B6803F46B
:10451000C063B3F5007F20D0134A136823F4C0634F
:1045200043F400731360114B1B68322202FB03F348
:104530000F4AA2FB03239B0C013300E0013B0A4A14
:10454000526912F4806F01D0002BF7D1064B5B69E2
:1045500013F4806F03D100207047002070470320C0
:1045600070470020704700BF00700040F803002033
:1045700083DE1B4330B583B00446204B9B6D13F0A4
:10458000805F0BD0FFF7A6FFB0F5007F17D0802C1F
:104590001FD82DD0702C2DD000211BE0174DAB6DF6
:1045A00043F08053AB65AB6D03F080530193019BE7
:1045B000FFF790FFAB6D23F08053AB65E4E7802CF1
:1045C00003D9A02C03D9022104E0002102E001213B
:1045D00000E003210A4A136823F007030B4313602A
:1045E000136803F007038B4206D1002003B030BDEF
:1045F0000221EFE70121EDE70120F7E7001002407B
:1046000000200240284A9368D26802F0030213F0A7
:104610000C030AD00C2B06D0042B1FD0082B20D063
:104620000020024610E0012AF6D11F4A126812F05B
:10463000080F0CD11C4AD2F89420C2F303221B4964
:1046400051F8222043B100200C2B0DD07047164AA0
:104650001268C2F30312F2E71046F5E7144800228D
:10466000F2E714480022EFE70F4BDB6803F0030387
:10467000022B16D0032B00D10E4A0B49CB68C3F393
:1046800002130133C868C0F3062002FB00F0B0FB40
:10469000F3F0CB68C3F3416301335B00B0FBF3F08D
:1046A000D4E7034AE9E700BF001002408078000821
:1046B0000024F40000127A00002800F0FC82F0B51B
:1046C00083B00446964B9D6805F00C05DE6806F045
:1046D0000306036813F0100F5AD0E5B10C2D18D063
:1046E000A369002B00F0BB808D4A136843F00103DF
:1046F0001360FEF715FF0746894B1B6813F0020F86
:1047000040F09A80FEF70CFFC01B0228F4D903206A
:10471000DCE2012EE4D1824B1B6813F0020F03D0C0
:10472000A369002B00F0C982206A7D4B1B6813F03F
:10473000080F5BD07A4B1B6803F0F00398425CD8FB
:10474000774B1A6842F008021A601A6822F0F002E9
:10475000216A0A431A605A6822F47F42E16942EAF8
:1047600001225A60002D60D0FFF74CFF6C4B9B6814
:10477000C3F303136B4AD35C03F01F03D8406A4BA7
:1047800018606A4B1868FEF789FE002840F09E8288
:10479000236813F0010F00F08180082D75D00C2DD7
:1047A00071D06368B3F5803F00F09780B3F5A02F18
:1047B00000F099805A4B1A6822F480321A601A6805
:1047C00022F480221A606368002B00F09980FEF7C3
:1047D000A7FE0746524B1B6813F4003F5ED1FEF75D
:1047E0009FFEC01B6428F5D903206FE24C4BD3F821
:1047F00094301B0903F0F003A0E7FFF7BBFE00288D
:1048000040F05D82464B1A6842F008021A601A684E
:1048100022F0F002216A0A431A605A6822F47F42A9
:10482000E16942EA01225A609EE7206AFFF7A2FE90
:10483000002899D0012049E2394B1A6842F0080259
:104840001A601A6822F0F002216A0A431A605A6854
:1048500022F47F42E16942EA01225A6098E7304A35
:10486000136823F001031360FEF75AFE07462C4B32
:104870001B6813F0020F8BD0FEF752FEC01B0228FC
:10488000F5D9032022E2032E8BD1254B1B6813F4AC
:10489000003F03D06368002B00F01382236813F0FD
:1048A000020F58D0042D45D00C2D41D0E368002BC9
:1048B00077D01B4A136843F480731360FEF730FE11
:1048C0000646174B1B6813F4806F61D1FEF728FE74
:1048D000801B0228F5D90320F8E1114A136843F43C
:1048E000803313606FE703F18043A3F53C331A680C
:1048F00042F480221A601A6842F480321A6062E739
:10490000FEF70EFE0746064B1B6813F4003FC5D0AA
:10491000FEF706FEC01B6428F5D90320D6E100BFD0
:1049200000100240B0780008F8030020D4040020F2
:10493000022EBBD1954B1B6813F4806F03D0E36844
:10494000002B00F0C081914A536823F0F85321698D
:1049500043EA01635360236813F0080F4CD0636986
:104960009BB38A4AD2F8943043F00103C2F89430E2
:10497000FEF7D6FD0646854BD3F8943013F0020FB0
:104980003AD1FEF7CDFD801B0228F4D903209DE12A
:104990007E4A536823F0F853216943EA0163536068
:1049A000D9E77A4A136823F480731360FEF7B8FDE1
:1049B0000646764B1B6813F4806FCCD0FEF7B0FD33
:1049C000801B0228F5D9032080E1704AD2F8943088
:1049D00023F00103C2F89430FEF7A2FD06466B4BAC
:1049E000D3F8943013F0020F06D0FEF799FD801B28
:1049F0000228F4D9032069E1236813F0040F7AD068
:104A0000624B9B6D13F0805F36D1604B9A6D42F024
:104A100080529A659B6D03F080530193019B0126A0
:104A20005B4B1B6813F4807F28D0A368012B39D01F
:104A3000052B3FD0554BD3F8902022F00102C3F84C
:104A40009020D3F8902022F00402C3F89020A368AD
:104A5000002B3DD0FEF764FD07464C4BD3F8903059
:104A600013F0020F46D1FEF75BFDC01B41F2883305
:104A70009842F2D9032029E10026D1E7444A13687D
:104A800043F480731360FEF74BFD0746404B1B68F1
:104A900013F4807FC9D1FEF743FDC01B0228F5D96E
:104AA000032013E1394AD2F8903043F00103C2F8F1
:104AB0009030CCE7354BD3F8902042F00402C3F895
:104AC0009020D3F8902042F00102C3F89020BEE776
:104AD000FEF726FD07462D4BD3F8903013F0020F5A
:104AE00008D0FEF71DFDC01B41F288339842F2D971
:104AF0000320EBE06EBBA36A002B00F0E680022BE4
:104B00002DD00C2D00F0E880204B1A6822F0807226
:104B10001A601B6813F0205F04D11C4AD36823F08D
:104B20000303D360194AD36823F0887323F48033D6
:104B3000D360FEF7F5FC0446144B1B6813F0007FAE
:104B400000F0B780FEF7ECFC001B0228F4D903202C
:104B5000BCE00E4A936D23F080539365CBE70B4B7B
:104B6000DB6803F00301E26A914213D00C2D00F0E0
:104B7000AF80064B1B6813F0806F40F0AB80034B97
:104B80001B6813F0805F31D001209FE000100240CD
:104B90000070004003F07002216B0139B2EB011F7D
:104BA000E4D103F4FE42616BB2EB012FDED103F4DA
:104BB0000031A26B073A18BF01229142D6D103F40B
:104BC000C001E26B5208013AB1EB425FCED103F073
:104BD000C063226C5208013AB3EB426FC6D13F4B1F
:104BE0001B6813F0007F4AD000206FE03B4A136837
:104BF00023F080731360FEF793FC0546374B1B6868
:104C000013F0007F06D0FEF78BFC401B0228F5D97D
:104C100003205BE0314AD36831491940E36A206BD5
:104C2000013843EA0013606B43EA0023E06B40085D
:104C3000013843EA4053206C4008013843EA40639E
:104C4000A06B000943EA40431943D160136843F065
:104C500080731360D36843F08073D360FEF760FC09
:104C600004461E4B1B6813F0007F06D1FEF758FC6C
:104C7000001B0228F5D9032028E0002026E0174B6E
:104C80001A6842F080721A60DA6842F08072DA6064
:104C9000FEF746FC0446114B1B6813F0007F06D15B
:104CA000FEF73EFC031B022BF5D903200EE000208B
:104CB0000CE000200AE001207047012006E00120FE
:104CC00004E0012002E0012000E0002003B0F0BD7C
:104CD0000120FBE70120F9E70120F7E7001002407F
:104CE0008C809DF9002800F0988070B50C46054630
:104CF0004E4B1B6803F007038B420BD24B4A1368E1
:104D000023F007030B431360136803F007038B4280
:104D100040F085802B6813F0010F39D06B68032BAE
:104D200009D0022B26D063BB414A126812F0020F51
:104D300006D1012070E03E4A126812F0007F70D068
:104D40003B498A6822F0030213438B60FEF7E8FBBD
:104D50000646374B9B6803F00C036A68B3EB820F7F
:104D600016D0FEF7DDFB801B41F288339842F0D964
:104D7000032051E02E4A126812F4003FE0D10120D6
:104D80004AE02B4A126812F4806FD9D1012043E027
:104D90002B6813F0020F06D0254A936823F0F00326
:104DA000A9680B439360214B1B6803F00703A342E0
:104DB0000AD91E4A136823F00703234313601368BC
:104DC00003F00703A3422ED12B6813F0040F06D083
:104DD000174A936823F4E063E9680B4393602B68F8
:104DE00013F0080F07D0124A936823F4605329691F
:104DF00043EAC1039360FFF705FC0D4B9B68C3F3C7
:104E000003130C4AD35C03F01F03D8400A4B18600D
:104E10000A4B1868FEF742FB70BD01207047012065
:104E2000FAE70120F8E70120F6E700BF0020024082
:104E300000100240B0780008F8030020D4040020DD
:104E4000014B1868704700BFF803002008B5FFF752
:104E5000F7FF054B9B68C3F30223044AD35C03F0BE
:104E60001F03D84008BD00BF00100240C0780008F2
:104E700008B5FFF7E5FF054B9B68C3F3C223044A5F
:104E8000D35C03F01F03D84008BD00BF00100240F0
:104E9000C0780008F8B504460F46594BDB6813F09C
:104EA000030F18D0564BDB6803F0030302689342EC
:104EB00002D001252846F8BD002A00F09E80504B04
:104EC000DB68C3F3021301334268934201D001252A
:104ED000F0E7002509E00368022B57D0032B5CD0D4
:104EE000012B42D00125002DE4D1454A136823F05F
:104EF00080631360FEF714FB0646414B1B6813F0FA
:104F0000006F05D0FEF70CFB831B022BF5D90325A0
:104F1000002DCFD1002F4ED139490B6923F41F3317
:104F200023F44073A068E2681209520442EA0022A6
:104F300013430B61324A136843F080631360FEF73A
:104F4000EFFA06462E4B1B6813F0006F05D1FEF7F3
:104F5000E7FA831B022BF5D90325002DAAD1284A95
:104F60001369A1690B431361A4E7254A126812F083
:104F7000020F1ED02248C26822F073026168013914
:104F800043EA01131343C3600025ACE71C4A1268CF
:104F900012F4806FEED10125A5E7194A126812F4C8
:104FA000003FE7D1164A126812F4802FE2D10125A2
:104FB00099E7012597E7012F0FD01148026922F0E8
:104FC000C06222F4FE42A16863695B08013B5B0694
:104FD00043EA01231A430261ACE70948026922F45B
:104FE000C00222F4FE42A16823695B08013B5B0515
:104FF00043EA01231A4302619CE701255AE700BFF7
:1050000000100240F8B504460F46504BDB6813F021
:10501000030F18D04D4BDB6803F003030268934283
:1050200002D001252846F8BD002A00F08C80474BAD
:10503000DB68C3F3021301334268934201D00125B8
:10504000F0E7002509E00368022B57D0032B5CD062
:10505000012B42D00125002DE4D13C4A136823F0F6
:1050600080531360FEF75CFA0646384B1B6813F05A
:10507000005F05D0FEF754FA831B022BF5D90325F8
:10508000002DCFD1002F4ED130494B6923F41F336F
:1050900023F44073A068E2681209520442EA002235
:1050A00013434B61294A136843F080531360FEF7A2
:1050B00037FA0646254B1B6813F0005F05D1FEF753
:1050C0002FFA831B022BF5D90325002DAAD11F4AE5
:1050D000536961690B435361A4E71C4A126812F0DB
:1050E000020F1ED01948C26822F0730261680139AC
:1050F00043EA01131343C3600025ACE7134A126867
:1051000012F4806FEED10125A5E7104A126812F45F
:10511000003FE7D10D4A126812F4802FE2D1012539
:1051200099E7012597E70948426922F0C06222F415
:10513000FE42A16823695B08013B5B0643EA012349
:105140001A434261AEE701256CE700BF0010024040
:105150002DE9F04182B00446036813F4006F33D0A8
:10516000436EB3F5000F1FD00CD823B3B3F5800FF7
:1051700005D100212030FFF745FF064620E001273A
:105180003E4623E0B3F5400F0BD10026604AD2F82B
:10519000883023F44003616E0B43C2F88830002747
:1051A00014E001273E4611E0594AD36843F48033A6
:1051B000D3600026EAE700210430FFF76BFE0646C5
:1051C000002EE3D0374601E000273E46236813F463
:1051D000805F30D0A36EB3F1007F1FD00DD81BB31A
:1051E000B3F1807F06D1002104F12000FFF70AFF10
:1051F000064605E001273E461DE0B3F1407F0AD197
:10520000C6B9434AD2F8883023F04073A16E0B43ED
:10521000C2F888300FE001273E460CE03C4AD368D4
:1052200043F48033D360EBE70021201DFFF732FE0B
:105230000646E5E73746236813F4003F71D0344B48
:105240009B6D13F0805F4ED1314B9A6D42F08052CE
:105250009A659B6D03F080530193019B4FF0010809
:105260002C4A136843F480731360FEF759F905461E
:10527000284B1B6813F4807F05D1FEF751F9401BC2
:105280000228F5D90326002E46D1214BD3F89030C1
:1052900013F4407316D0D4F884209A4212D01C4ADA
:1052A000D2F8903023F44073D2F8901041F480315A
:1052B000C2F89010D2F8901021F48031C2F890100A
:1052C000C2F8903013F0010F10D1002E40F027816A
:1052D0000F4AD2F8903023F44073D4F884100B4373
:1052E000C2F8903019E04FF00008B9E7FEF718F95E
:1052F0000546074BD3F8903013F0020FE5D1FEF7C7
:105300000FF9401B41F288339842F2D90326DCE7BB
:1053100000100240007000403746B8F1000F40F026
:105320000081236813F0010F08D09D4AD2F888301D
:1053300023F00303A16B0B43C2F88830236813F0FA
:10534000020F08D0964AD2F8883023F00C03E16BA4
:105350000B43C2F88830236813F0040F08D0904A3A
:10536000D2F8883023F03003216C0B43C2F8883028
:10537000236813F0080F08D0894AD2F8883023F048
:10538000C003616C0B43C2F88830236813F0100F20
:1053900008D0834AD2F8883023F44073A16C0B43C1
:1053A000C2F88830236813F0200F08D07C4AD2F866
:1053B000883023F44063E16C0B43C2F888302368E3
:1053C00013F4007F08D0764AD2F8883023F44023C3
:1053D000E16D0B43C2F88830236813F4806F08D066
:1053E0006F4AD2F8883023F44013216E0B43C2F881
:1053F0008830236813F0400F08D0694AD2F888300B
:1054000023F44053216D0B43C2F88830236813F016
:10541000800F08D0624AD2F8883023F44043616D8F
:105420000B43C2F88830236813F4807F08D05C4AAD
:10543000D2F8883023F44033A16D0B43C2F8883092
:10544000236813F4005F0FD0554AD2F8883023F058
:105450004063E16E0B43C2F88830E36EB3F1006F36
:1054600065D0B3F1806F67D0236813F4002F0FD09D
:105470004B4AD2F8883023F04063216F0B43C2F8C7
:105480008830236FB3F1006F5ED0B3F1806F60D0CE
:10549000236813F4802F0FD0414AD2F8883023F0CC
:1054A0004063616F0B43C2F88830636FB3F1006FE4
:1054B00057D0B3F1806F59D0236813F4804F0FD0C9
:1054C000374AD2F8883023F04053A16F0B43C2F81B
:1054D0008830A36FB3F1805F50D0B3F1005F55D037
:1054E000236813F4004F08D02D4AD2F8883023F0F7
:1054F0008043E16F0B43C2F88830236813F4803F88
:1055000009D0274AD2F8883023F00043D4F880101D
:105510000B43C2F88830384602B0BDE8F081374608
:10552000FBE61F4A936D23F080539365F9E6D36839
:1055300043F48013D36097E70121201DFFF7AAFCF5
:10554000002891D007468FE7D36843F48013D360D7
:105550009EE70121201DFFF79DFC002898D00746FB
:1055600096E7D36843F48013D360A5E70121201D9B
:10557000FFF790FC00289FD007469DE70221201DE1
:10558000FFF788FC0028ABD00746A9E7022104F109
:105590002000FFF737FD0028A2D00746A0E700BF94
:1055A000001002402DE9F04782B0054688461746B4
:1055B0001E46FDF7B5FF0A9B1B1A03EB0609FDF714
:1055C000AFFF82462A4B1B68C3F3CB3309FB03F3BF
:1055D00001932B689C6838EA04040CBF0123002364
:1055E000BB4240D0B6F1FF3FF3D0FDF799FFA0EBEF
:1055F0000A0048450AD2B9F1000F07D0019A02B15A
:105600004A46019B013B01939146E2E72A685368B1
:1056100023F0E00353606B68B3F5827F0BD0AB6A75
:10562000B3F5005F14D0012385F85D30002385F8C1
:105630005C30032018E0AB68B3F5004F02D0B3F53F
:10564000806FECD12A68136823F040031360E6E70B
:105650002A68136823F4005313602A68136843F41C
:1056600000531360DFE7002002B0BDE8F08700BF01
:10567000F80300202DE9F04782B007460D46164694
:105680009846FDF74DFF0A9B1B1A03EB0809FDF72F
:1056900047FF82462E4B1B6803EB8303C3EBC30318
:1056A0001B0D09FB03F3019302E0B8F1FF3F0CD19E
:1056B0003B689C6804EA050CB44544D0B5F5C06F5E
:1056C000F3D1002EF1D11B7BEFE7FDF729FFA0EB13
:1056D0000A0048450AD2B9F1000F07D0019A02B179
:1056E0004A46019B013B01939146E1E73A685368C2
:1056F00023F0E00353607B68B3F5827F0BD0BB6A75
:10570000B3F5005F14D0012387F85D30002387F8DC
:105710005C30032018E0BB68B3F5004F02D0B3F54E
:10572000806FECD13A68136823F040031360E6E71A
:105730003A68136823F4005313603A68136843F41B
:1057400000531360DFE7002002B0BDE8F08700BF20
:10575000F803002070B582B004460D46164600924C
:105760000B4600224FF4C051FFF784FFB0B90096FA
:105770002B46002280212046FFF714FFA8B900968F
:105780002B4600224FF4C0612046FFF773FF50B153
:10579000236E43F020032366032004E0236E43F0CE
:1057A00020032366032002B070BD236E43F0200364
:1057B00023660320F7E700286AD010B50446436A41
:1057C00033B94368B3F5827F05D00023C36102E09B
:1057D0000023036143610023A36294F85D30002B32
:1057E0004DD0022384F85D302268136823F0400313
:1057F0001360E368B3F5E06F47D90022B3F5706F2B
:1058000004D0B3F5E06F01D00023A362636803F412
:105810008273A16801F404410B43216901F0020184
:105820000B43616901F001010B43A16901F40071AF
:105830000B43E16901F038010B43216A01F080015B
:105840000B43A16A01F4005120680B430360638B92
:1058500003F00403616A01F010010B43616B01F076
:1058600008010B43E16801F470610B4321681A439E
:105870004A6000202066012384F85D3010BD84F862
:105880005C302046FCF71AFFABE74FF48052B5E7D7
:10589000012070472DE9F04383B01D4690F85C303D
:1058A000012B00F0F680044688469146012380F8DB
:1058B0005C30FDF735FE074694F85D60F6B2012EC8
:1058C00040F0D480B8F1000F00F0D180B9F1000FA2
:1058D00000F0CD80032384F85D3000232366C4F8F4
:1058E0003880A4F83C90A4F83E902364A4F8443097
:1058F000A4F846302365E364A368B3F5004F1ED0D7
:1059000023681A6812F0400F03D11A6842F040026F
:105910001A60E368B3F5E06F42D9636813B1B9F177
:10592000010F23D1A26B23681288DA60A36B0233C4
:10593000A363E38F9BB2013B9BB2E38716E022682F
:10594000136823F0400313602268136843F4804314
:105950001360D5E7FDF7E4FDC01BA84203D3B5F102
:10596000FF3F40F08E80002D00F08D80E38F9BB2D2
:10597000002B66D023689A6812F0020FEAD0A26B5F
:105980001288DA60A36B0233A363B4F83EC01FFA37
:105990008CFC0CF1FF3C1FFA8CFCA4F83EC0E5E740
:1059A000636813B1B9F1010F33D1E38F9BB2012BBF
:1059B0000CD9A26B23681288DA60A36B0233A3634D
:1059C000E38F9BB2023B9BB2E38722E0A26B23688A
:1059D00012781A73A36B0133A363E38F9BB2013B6D
:1059E0009BB2E38715E0A36B1B781373A36B0133A2
:1059F000A363E38F9BB2013B9BB2E38709E0FDF712
:105A00008FFDC01BA84202D3B5F1FF3F3DD1002D51
:105A10003DD0E38F9BB2A3B12268936813F0020FCD
:105A2000EDD0E38F9BB2012BDDD9A36B1B88D36034
:105A3000A36B0233A363E38F9BB2023B9BB2E3876A
:105A4000E7E73A4629462046FFF784FE08B12023BF
:105A50002366A36833B901932368DA6801929B68CF
:105A60000193019B236E13B9002600E00226012357
:105A700084F85D30002384F85C30304603B0BDE824
:105A8000F0830326F3E70326F1E70326EFE7032677
:105A9000EDE70226F1E72DE9F8431F46089D90F84F
:105AA0005C30012B00F06481044688469146012356
:105AB00080F85C30FDF734FD064694F85D30DBB2CB
:105AC0006268012B0AD0B2F5827F40F03881A2686B
:105AD000002A40F03D81042B40F03C81B8F1000FDA
