:020000040800F2
:1000000000800120D56E0008892700088B27000892
:100010008D2700088F2700089127000800000000A6
:10002000000000000000000000000000932700080E
:10003000952700080000000097270008992700086E
:10004000256F0008256F0008256F0008256F000840
:10005000256F0008256F0008256F0008256F000830
:10006000256F0008256F0008256F0008256F000820
:10007000256F0008256F0008256F0008256F000810
:10008000256F0008256F0008256F0008256F000800
:10009000256F0008256F0008256F0008A1270008BC
:1000A000256F0008256F0008256F0008256F0008E0
:1000B000256F0008256F0008256F0008256F0008D0
:1000C000256F0008256F0008256F0008256F0008C0
:1000D000256F0008256F0008256F0008256F0008B0
:1000E000256F0008256F0008256F0008256F0008A0
:1000F000256F0008256F0008256F0008256F000890
:10010000256F0008256F0008256F0008256F00087F
:10011000256F0008256F0008B5270008256F000827
:10012000256F0008256F0008256F0008256F00085F
:10013000256F0008256F0008256F0008256F00084F
:10014000256F0008256F0008256F0008256F00083F
:10015000256F0008256F0008256F0008256F00082F
:10016000256F0008256F0008256F0008256F00081F
:10017000256F0008256F0008000000000000000047
:08018000256F0008256F00083F
:1001900010B5054C237833B9044B13B10448AFF3C1
:1001A00000800123237010BD4005002000000000E6
:1001B000B478000808B5034B1BB103490348AFF3FB
:1001C000008008BD0000000044050020B47800084D
:1001D000034613F8012B002AFBD1181A0138704787
:1001E00001F0FF01102A2BDB10F0070F08D010F8E8
:1001F000013B013A8B422DD010F0070F42B3F6D1EC
:10020000F0B441EA012141EA014122F007047FF004
:1002100000070023F0E80256083C85EA010586EA5B
:10022000010685FA47F5A3FA87F586FA47F6A5FA97
:1002300087F68EB9EED1F0BC01F0FF0102F00702A3
:1002400032B110F8013B013A83EA010313B1F8D14E
:100250000020704701387047002D06BF354603382F
:10026000073815F0010F07D1013015F4807F02BF68
:10027000013015F4C03F0130F0BC0138704700BFB9
:1002800053B94AB9002908BF00281CBF4FF0FF31FD
:100290004FF0FF3000F074B9ADF1080C6DE904CEF9
:1002A00000F006F8DDF804E0DDE9022304B0704751
:1002B0002DE9F047089D04468E46002B4DD18A4219
:1002C000944669D9B2FA82F252B101FA02F3C2F14C
:1002D000200120FA01F10CFA02FC41EA030E9440DD
:1002E0004FEA1C48210CBEFBF8F61FFA8CF708FBFE
:1002F00016E341EA034306FB07F199420AD91CEBD6
:10030000030306F1FF3080F01F81994240F21C8107
:10031000023E63445B1AA4B2B3FBF8F008FB10334F
:1003200044EA034400FB07F7A7420AD91CEB040484
:1003300000F1FF3380F00A81A74240F20781644454
:10034000023840EA0640E41B00261DB1D4400023D9
:10035000C5E900433146BDE8F0878B4209D9002D3D
:1003600000F0EF800026C5E9000130463146BDE8C7
:10037000F087B3FA83F6002E4AD18B4202D3824231
:1003800000F2F980841A61EB030301209E46002DE0
:10039000E0D0C5E9004EDDE702B9FFDEB2FA82F235
:1003A000002A40F09280A1EB0C014FEA1C471FFA93
:1003B0008CFE0126200CB1FBF7F307FB131140EA7A
:1003C00001410EFB03F0884208D91CEB010103F147
:1003D000FF3802D2884200F2CB804346091AA4B209
:1003E000B1FBF7F007FB101144EA01440EFB00FEDD
:1003F000A64508D91CEB040400F1FF3102D2A64542
:1004000000F2BB800846A4EB0E0440EA03409CE7E0
:10041000C6F12007B34022FA07FC4CEA030C20FA8D
:1004200007F401FA06F31C43F9404FEA1C4900FAAD
:1004300006F3B1FBF9F8200C1FFA8CFE09FB18112A
:1004400040EA014108FB0EF0884202FA06F20BD99D
:100450001CEB010108F1FF3A80F08880884240F2ED
:100460008580A8F102086144091AA4B2B1FBF9F031
:1004700009FB101144EA014100FB0EFE8E4508D92C
:100480001CEB010100F1FF346CD28E456AD90238B1
:10049000614440EA0840A0FB0294A1EB0E01A14296
:1004A000C846A64656D353D05DB1B3EB080261EB04
:1004B0000E0101FA07F722FA06F3F1401F43C5E9DE
:1004C000007100263146BDE8F087C2F12003D84014
:1004D0000CFA02FC21FA03F3914001434FEA1C4756
:1004E0001FFA8CFEB3FBF7F007FB10360B0C43EA48
:1004F000064300FB0EF69E4204FA02F408D91CEBF8
:10050000030300F1FF382FD29E422DD902386344F5
:100510009B1B89B2B3FBF7F607FB163341EA034195
:1005200006FB0EF38B4208D91CEB010106F1FF38E4
:1005300016D28B4214D9023E6144C91A46EA0046DB
:1005400038E72E46284605E70646E3E61846F8E66D
:100550004B45A9D2B9EB020864EB0C0E0138A3E7B6
:100560004646EAE7204694E74046D1E7D0467BE797
:10057000023B614432E7304609E76444023842E70F
:10058000704700BF08B5054B1978B1FA81F14909E8
:100590001970022000F0A2FF08BD00BF5C0500201A
:1005A00008B50121022000F099FF4FF4FA720023F0
:1005B0000649002002F078F90021032000F08EFFA8
:1005C0000349022001F0DCFE08BD00BF85050008DC
:1005D000C9120008704700002DE9F0418AB00023DD
:1005E000099340214F4803F0D5F928B94E4B5B6879
:1005F0002BB90AB0BDE8F08100F0F6F9F9E74A4BF3
:1006000000225A6009A801F011FC484CBDF92430C1
:1006100000930D23464A4749204600F0B3FC0A20C8
:1006200002F0B2FF06A801F0A7FB9DED060A092320
:10063000414A4249204600F071FD0A2002F0A4FF21
:1006400007A801F053FB9DED070A08233C4A3D49EA
:10065000204600F063FD0A2002F096FF0DF1120221
:1006600005A90DF1160001F027FCDFF81081364DC9
:10067000BDF9163000930A2342463449284600F05B
:1006800081FC334FBDF9143000930A233A463149B7
:10069000284600F077FC304EBDF9123000930A2353
:1006A00032462E49284600F06DFC08A801F066F994
:1006B0009DED080A0A232A4A2A49204600F02EFD09
:1006C0000A2002F061FF03AA0DF10E0104A801F057
:1006D000AFFC254CBDF9103000930A234246234954
:1006E000204600F04FFCBDF90E3000930A233A4635
:1006F0001F49204600F046FCBDF90C3000930A2348
:1007000032461C49204600F03DFC01F07BFB099B72
:10071000B3F5FA7F01DD4FF4FA73174A1268536399
:1007200067E700BF001000485C0500207C06002041
:10073000AC01002090060020440100208406002027
:100740006801002088060020940600209C060020F6
:10075000D0020020A0060020F4020020A406002001
:10076000880100208C060020A8060020B00600208A
:10077000B4060020B8060020D8080020AC020020F3
:1007800030BF70472DE9F04188B006460D46344B26
:1007900093E8030006908DF81C104021314803F0C7
:1007A000F9F8002859D0052002F0EEFE2E4F002265
:1007B0004FF40051384603F0F4F8DFF8B08001241C
:1007C0000094052304AA06A9404605F098F922469C
:1007D0004FF40051384603F0E4F8204602F0D4FE0E
:1007E00000224FF40051384603F0DBF80094052353
:1007F00004AA06A9404605F082F99DF813309DF839
:10080000142043EA0223FF228DF80F20AB4200DCC4
:100810001D46002D18DD002408E001230093321945
:100820000DF10F01114805F06AF90134A542F4DC1D
:1008300001224FF400510C4803F0B3F800200C4B98
:10084000186008B0BDE8F08101224FF4005106485D
:1008500003F0A7F84FF0FF30F3E76FF00100F0E787
:10086000D078000800100048000C0048DC07002089
:1008700064050020002393420FDA00B510F803E06E
:1008800011F803C0E64505D101339342F6DB0020A1
:100890005DF804FB4FF0FF30FAE7002070470000DE
:1008A00070B586B005460C46194B93E803000490DA
:1008B0008DF8141000224FF40051164803F071F81F
:1008C00001230093052302AA04A9134805F017F990
:1008D0009DF80A209DF8093043EA0223A3420EDA6C
:1008E0004FF0FF3601224FF400510A4803F059F847
:1008F0000A4B00221A60002EDCD106B070BD012325
:10090000A2B22946044804F0F9FF0026EAE700BF36
:10091000D8780008000C0048DC070020640500209F
:1009200070B5122006F02AFB04462B4E334607CB47
:1009300020606160A2601B7823730023A373E373BC
:100940002374637463730E23F3761B23F3741F20E5
:1009500006F014FB054606F1100307CB286069601A
:10096000AA601B782B7320686168A268E368C5F8E9
:100970000D00C5F81110C5F81520C5F81930238AE7
:10098000A5F81D301F212846FFF78AFF072006F033
:10099000F5FA0646114B1B68002BFBD007213046A9
:1009A000FFF7F0FE50B907220D493046FFF762FF0E
:1009B00020B90C4A138843F080031380304606F0B8
:1009C000E5FA284606F0E2FA204606F0DFFA0A20A9
:1009D00002F0DAFD70BD00BF0000002064050020B9
:1009E000200000206805002008B57F210648FFF799
:1009F000C9FE28B9032205490348FFF73BFF00B1B0
:100A000008BDFFF78DFFFBE76C05002028000020E4
:100A1000F8B517461E46FFF743FF069D06EB450552
:100A2000284606F0ABFA114BC3F80401002440211C
:100A30000F4802F0AFFF20B9013447F23050844232
:100A4000F5DD2946094BD3F80401FFF79BFE044668
:100A500038B932463946054BD3F80401FFF70AFF8F
:100A600004460A2002F090FD2046F8BD68050020EB
:100A70000010004830B583B00D46164CD0F800E0A9
:100A8000D0F804C08168C368C4F831E0C4F835C048
:100A9000C4F83910C4F83D3084F842200123009393
:100AA000072304F14402172104F12C00FFF7B0FFE3
:100AB00040B9094BD3F80421D2792A70D3F8043114
:100AC0001B7A6B70044BD3F8040106F05FFA03B095
:100AD00030BD00BF000000206805002070B582B066
:100AE0000D461B4C0668D0F804E0D0F808C0C16879
:100AF000C4F85360C4F857E0C4F85BC0C4F85F1092
:100B0000117884F85010527884F8512084F86330BA
:100B10009DF8183084F8653001230093072304F111
:100B20006C021E2104F14C00FFF772FF40B9094B23
:100B3000D3F80421D2792A70D3F804311B7A6B7070
:100B4000044BD3F8040106F021FA02B070BD00BFD7
:100B50000000002068050020F0B583B01E46DBB21F
:100B60009D1D1C4C84F87750057884F878504078A7
:100B700084F87900087884F87A00497884F87B1042
:100B800084F87C2084F87D3006F10A07384606F0A8
:100B9000F5F9054604F1740303CB286069601B88EE
:100BA0002B813246089905F10A0006F0F7F9002377
:100BB0000093072304F16C0239462846FFF728FF0B
:100BC000284606F0E3F9044BD3F8040106F0DEF9F9
:100BD00003B0F0BD00000020680500202DE9F043BF
:100BE00083B0062006F0CAF9D34BC3F80401D34BF7
:100BF0001B68002BFBD00621FFF7C4FD60B906225D
:100C0000CF49CD4BD3F80401FFF734FE20B9CA4ACF
:100C1000138843F0010313800A2002F0B5FCC64B91
:100C2000D3F8040106F0B2F9C64800230093072365
:100C300000F18C0204219430FFF7EAFE20B9BE4A8D
:100C4000138843F002031380BB4BD3F8040106F072
:100C50009DF9BC4803230093072300F1980219462D
:100C6000A030FFF7D5FE90B9B34B1A8842F00402CA
:100C70001A80D3F80421B2F80710A3F80811B2F8CB
:100C80000910A3F80C11B2F80B20A3F81021AA4CFC
:100C9000D4F8040106F07AF9AA4D00950D2300223C
:100CA00004F5867104F58470FFF756FF238843F03E
:100CB00008032380D4F8040106F068F900230093A8
:100CC000072305F1A802102105F1B000FFF7A0FEEF
:100CD00018B9238843F010032380974BD3F80401FD
:100CE00006F054F9974800230093072300F1C0024F
:100CF0000621C830FFF78CFE20B98F4A138843F0D5
:100D0000200313808C4BD3F8040106F03FF98D4883
:100D100000230093072300F1D0022421D830FFF7ED
:100D200077FE20B9844A138843F040031380824D34
:100D3000D5F8040106F02AF9FFF7F2FD05F58A77E8
:100D4000804C0F22394604F1FC00FFF793FE05F5B5
:100D50008C764FF00208CDF8008016233A463146D3
:100D600004F58670FFF7BAFE04F58E730093162320
:100D7000002231463846FFF7EFFE05F58E79122640
:100D8000009611233A46494604F59A70FFF7A6FEED
:100D900004F5A27300931123002249463846FFF759
:100DA000DBFE05F59079009610233A46494604F596
:100DB000AC70FFF793FE04F5B47300931023002288
:100DC00049463846FFF7C8FE05F592790096334646
:100DD0003A46494604F5BC70FFF780FE04F5C4733B
:100DE00000933346002249463846FFF7B5FE05F525
:100DF0009479009614233A46494604F5CE70FFF7DD
:100E00006DFE04F5D673009314230022494638463C
:100E1000FFF7A2FE05F596770C22394604F5E0703F
:100E2000FFF728FE05F59879CDF8008018233A469B
:100E3000494604F5E870FFF751FE04F5F07300939E
:100E40001823002249463846FFF786FE05F59A79B1
:100E5000009611233A46494604F5FC70FFF73EFE22
:100E600004F5027300931123002249463846FFF728
:100E700073FE05F59C79009611233A46494604F520
:100E80000770FFF72BFE04F50B730093112300226C
:100E900049463846FFF760FE05F59E790096112316
:100EA0003A46494604F51070FFF718FE04F514732E
:100EB00000931123002249463846FFF74DFE05F501
:100EC000A0770C22394604F51970FFF7D3FD05F51C
:100ED000A279CDF8008017233A46494604F51D70E3
:100EE000FFF7FCFD04F52173009317230022494608
:100EF0003846FFF731FE05F5A478009611233A46EF
:100F0000414604F52770FFF7E9FD04F52B730093C4
:100F10001123002241463846FFF71EFE05F5A6784C
:100F2000009611233A46414604F53070FFF7D6FD8E
:100F300004F5347308E000BF680500206405002054
:100F4000840000200000002000931123002241466D
:100F50003846FFF701FE05F5A875009611233A46BD
:100F6000294604F53970FFF7B9FD04F53D74009486
:100F70001123002229463846FFF7EEFD03B0BDE8F5
:100F8000F08300BF2DE9F04784B007468846144639
:100F90001E46BDF930A003F10709484605F0EEFFF3
:100FA00005463246214605F0F9FFBAF1000F67DB2E
:100FB0002B238DF80830554B83FB0A234FEAEA7246
:100FC000C2EBA312D2B28DF80920514902FB01F104
:100FD0000AEB01004F4C84FB0034C317C3EB6413CE
:100FE000DBB28DF80A306FF0630404FB03A42144E4
:100FF000494880FB0140CC17C4EBA004E4B28DF853
:101000000B40C4EB441CC4EB8C0103EB830CC3EB1F
:10101000CC0C4FEA8C0C0CEB410CD44402EB42019B
:10102000C90051FA8CFC5FFA8CFC8DF80CC07AB3C5
:1010300030328DF8092030338DF80A3030348DF895
:101040000B400CF1300C8DF80CC022238DF80D30C4
:101050007D238DF80E300024C4F1070202A9A819DF
:1010600005F09CFF0095A9EB040300224146384699
:10107000FFF772FD284605F089FF04B0BDE8F08750
:101080002D238DF80830CAF1000C0FFA8CFA92E784
:101090003BBB94B90CF1300C8DF809C022238DF8BC
:1010A0000A307D238DF80B3020238DF80C308DF81D
:1010B0000D308DF80E300324CEE730348DF8094022
:1010C0000CF1300C8DF80AC022238DF80B307D23F3
:1010D0008DF80C3020238DF80D308DF80E30022461
:1010E000BAE730338DF8093030348DF80A400CF10E
:1010F000300C8DF80BC022238DF80C307D238DF839
:101100000D3020238DF80E300124A5E7D34D621059
:1011100018FCFFFF1F85EB51676666662DE9F043FB
:101120002DED028B85B006460F4691461D46B0EE6A
:10113000408A03F10808404605F020FF04462A468D
:10114000494605F02BFFB2EE040A28EE008ABDEEF8
:10115000C88A18EE103A19B2002971DB2B238DF8DA
:101160000830554B83FB0123CA17C2EBA312D2B23E
:101170008DF80920514802FB00F001EB000C504BA8
:1011800083FB0C3E4FEAEC73C3EB6E13DBB28DF8BE
:101190000A306FF0630C0CFB031C6044DFF824E1A1
:1011A0008EFB00CE4FEAE07CCCEBAE0C5FFA8CFC01
:1011B0008DF80BC0CCEB4C1ECCEB8E0003EB830EFA
:1011C000C3EBCE0E4FEA8E0E0EEB400E8E4402EBBA
:1011D0004201C90051FA8EFE5FFA8EFE8DF80DE0D5
:1011E000B2B330328DF8092030338DF80A300CF16B
:1011F000300C8DF80BC02E238DF80C300EF1300E14
:101200008DF80DE022238DF80E307D238DF80F3000
:101210004FF00009C9F1080202A9601905F0BEFEED
:101220000094A8EB0903002239463046FFF794FCEE
:10123000204605F0ABFE05B0BDEC028BBDE8F083A7
:101240002D238DF80830C1F1000E0FFA8EF188E7DA
:10125000C3B90CF1300C8DF809C02E238DF80A307B
:101260000EF1300E8DF80BE022238DF80C307D232B
:101270008DF80D3020238DF80E308DF80F304FF0A3
:101280000209C7E730338DF809300CF1300C8DF8C6
:101290000AC02E238DF80B300EF1300E8DF80CE0C5
:1012A00022238DF80D307D238DF80E3020238DF80C
:1012B0000F304FF00109ADE7D34D621018FCFFFF6E
:1012C0001F85EB516766666608B5012000F016F9C8
:1012D000024620B1054B1B782BB1002000E0002016
:1012E000024B1A7008BD0120FAE700BFDA060020A1
:1012F00010B590B03C4CD4ED007AFDEEE77A17EED5
:10130000902A3A4903A805F057FF03A801F088FB8B
:10131000D4ED017AFDEEE77A17EE902A344903A85E
:1013200005F04AFF03A801F07BFBD4ED027AFDEE45
:10133000E77A17EE902A2F4903A805F03DFF03A88E
:1013400001F06EFBE36893ED007AD3ED016AD3ED13
:10135000027AFDEEE77ACDED007AFDEEE67A17EE41
:10136000903AFDEEC77A17EE902A234903A805F0BC
:1013700023FF03A801F054FB236993ED007AD3ED1A
:10138000016AD3ED027AFDEEE77ACDED007AFDEE4B
:10139000E67A17EE903AFDEEC77A17EE902A1749D3
:1013A00003A805F009FF03A801F03AFB636993ED78
:1013B000007AD3ED016AD3ED027AFDEEE77ACDED46
:1013C000007AFDEEE67A17EE903AFDEEC77A17EE58
:1013D000902A0B4903A805F0EFFE03A801F020FBBB
:1013E00001F00CFB10B010BDDC06002028790008CD
:1013F0003C7900084C7900085C790008787900088D
:101400009079000808B540F6B8320023084900205A
:1014100001F04AFA0021032000F060F801210220C7
:1014200000F05CF80349032000F0AAFF08BD00BFEC
:10143000F1120008C912000810B5012000F070F880
:101440000C4C84ED000A002000F06AF884ED010ADB
:10145000022000F065F884ED020A002000F070F828
:101460002061022000F06CF8E060012000F068F8D4
:10147000606110BDDC0600207047704710B501F0B8
:10148000AFFF094C094B236002F01AF8084B636068
:1014900001F0F6FF074BA36001F03EFF01F06CFF87
:1014A00001F0BEFF10BD00BFF80600200D3400089B
:1014B000E5340008AD34000810B4074C00EB4003DD
:1014C00004EBC30319619A8283ED080B83ED061BBD
:1014D0005DF8044B704700BFF806002008B50A46C7
:1014E000054B00EB400C03EBCC0CBCF81410DCF803
:1014F000100002F056FA08BDF8060020072801D9AE
:101500000020704708B5054B00EB400203EBC20218
:10151000918A106902F03EFA08BD00BFF80600206B
:10152000022805D808B5044B53F82030984708BD69
:101530009FED020A704700BFF80600200000CA4372
:10154000022827D810B5012804D002280CD038B1C1
:1015500000231BE0104C204601F038FF204618E025
:101560000E4801F083FFF3E70C4801F0FBFEEFE7C4
:101570000B4A02EB4301B1F9DC1007EE901A02EBC3
:101580008302F8EEE77AC2ED347A0133022BEFDD05
:10159000014810BD00207047C8070020D407002074
:1015A000F80600202DE9F0438BB000240594069442
:1015B000079408940994454BDA6C42F01002DA64FF
:1015C000DA6C02F010020092009ADA6C42F0020229
:1015D000DA64DA6C02F002020192019ADA6C42F0EB
:1015E0000802DA64DA6C02F008020292029ADA6CFB
:1015F00042F00402DA64DA6C02F004020392039A05
:10160000DA6C42F00102DA64DB6C03F0010304934C
:10161000049BDFF8C89001224FF40051484602F0C5
:10162000C0F92B4E22464021304602F0BAF9012281
:101630004FF480714FF0904002F0B3F94FF0400842
:10164000CDF81480234B0693079405A9224802F095
:101650001BF84FF4005705970125069507940323BF
:10166000089305A9484602F00FF8CDF814800695B6
:101670000794089405A9304602F006F84FF48073E9
:10168000059306950794089405A94FF0904001F042
:10169000FBFF2023059306950794089405A94FF0B6
:1016A000904001F0F1FF05970694079405A9304694
:1016B00001F0EAFF22462146172001F08BFF172098
:1016C00001F0C0FF0BB0BDE8F08300BF0010024086
:1016D000000800480000111000100048000C0048ED
:1016E00072B6FEE708B50F480F4B03604FF48273E4
:1016F0004360002383604FF4E062C2600361436192
:101700004FF400728261C361036243628362072205
:10171000C26203630823436304F081F800B908BD83
:10172000FFF7DEFFDC070020003C004008B5124850
:10173000124B4366124B83660023C3660122026785
:1017400043678367C367C0F88030C0F88430643073
:1017500002F0F8FA50B900210A4802F093FE38B9B5
:101760000021084802F0BCFE20B908BDFFF7B8FF11
:10177000FFF7B6FFFFF7B4FFDC070020005800407A
:101780000E0900204008002000B585B00023019319
:10179000029303931148124AC0F8B02040F69F729A
:1017A000C0F8B420C0F8B8304FF47A72C0F8BC204A
:1017B000C0F8C830B03004F0C3FD50B90023019325
:1017C000039301A9074804F0B5FF20B905B05DF8FF
:1017D00004FBFFF785FFFFF783FF00BFDC07002056
:1017E000001000408C08002010B596B0002413941F
:1017F000149415940C940D940E940F9410941194C9
:1018000012942C22214601A805F0D6FB2448254B32
:10181000C0F8FC306423C0F80031C0F804414FF434
:10182000FA73C0F80831C0F80C41C0F81041C0F894
:101830001441FC3004F0B4FD002829D10023139397
:10184000159313A9184804F075FF18BB60230C9377
:1018500000220D920E920F921092119212920CA9E8
:10186000114804F013FEB8B90023019302930393C7
:10187000049305934FF4005206920B9301A90A4872
:1018800004F0A4FF50B9084800F054FF16B010BD92
:10189000FFF726FFFFF724FFFFF722FFFFF720FFE8
:1018A000DC07002000400140D808002000B5B9B096
:1018B0004422002127A805F07FFB002122912391DB
:1018C0002491259126918822684605F075FB102306
:1018D000279301232D9370232F9327A802F01EFF37
:1018E000D0B90F2322930021239124912591269191
:1018F00022A803F029FA88B98023009300231593C6
:10190000684603F057FC58B94FF4007002F01CFE13
:1019100040B939B05DF804FBFFF7E2FEFFF7E0FEE7
:10192000FFF7DEFEFFF7DCFE08B501F00BFEFFF768
:10193000BDFFFFF737FEFFF7D5FEFFF7F7FEFFF716
:1019400023FFFFF751FF00F055FD012000F096FD49
:10195000FBE7000000B585B042F21003ADF80C3093
:1019600001230093022303AABA21034802F062FA7A
:1019700005B05DF804FB00BF40080020F0B587B05B
:10198000074628238DF8143029238DF810302A2398
:101990008DF80C30224D01260096022305AABA21AB
:1019A000284602F047FA0096022302AABB212846E5
:1019B00002F040FA9DF808400096022304AABA21DA
:1019C000284602F037FA0096022302AABB212846D5
:1019D00002F030FA9DF8083044EA0324009602230E
:1019E00003AABA21284602F025FA0096022302AA89
:1019F000BB21284602F01EFA9DF8083044EA034352
:101A0000B3F5000F00DB5B4207EE903AF8EEE77AA1
:101A10009FED047A67EE877AC7ED007A07B0F0BDD4
:101A2000400800200000803970B58EB048F22013C5
:101A3000ADF83430AB4E0124009402230DAABE2130
:101A4000304602F0F7F932238DF82C3033238DF82D
:101A50002830009423460BAABE21304602F0EAF952
:101A6000009423460CAABF21304602F0A1FA9DF84B
:101A700030309D4D2B60009423460AAABE2130468B
:101A800002F0D8F9009423460CAABF21304602F098
:101A90008FFA9DF830306B6035238DF82430009438
:101AA000234609AABE21304602F0C4F90094234619
:101AB0000CAABF21304602F07BFA9DF830301A02A2
:101AC00002F4407229680A432A609B101B0203F447
:101AD000407369680B436B60D2102A60DB106B6047
:101AE0003C238DF820303D238DF81C300094234694
:101AF00008AABE21304602F09DF9009423460CAAA4
:101B0000BF21304602F054FA9DF830302B8100940A
:101B1000234607AABE21304602F08CF900942346E2
:101B20000CAABF21304602F043FA9DF830202B89E1
:101B300043EA02232B813E238DF818303F238DF892
:101B400014300094234606AABE21304602F072F9F2
:101B5000009423460CAABF21304602F029FA9DF8D2
:101B600030306B810094234605AABE21304602F036
:101B700061F9009423460CAABF21304602F018FAFE
:101B80009DF830206B8943EA02231BB26B816A689F
:101B90002968521A07EE902AB8EEE77AB5F90820BC
:101BA0009B1A07EE903AF8EEE77AC7EE276AC5ED82
:101BB000036A30238DF8103031238DF80C300094F7
:101BC000234604AABE21304602F034F9009423468D
:101BD0000CAABF21304602F0EBF99DF830302B748F
:101BE0000094234603AABE21304602F023F9009454
:101BF00023460CAABF21304602F0DAF99DF83030B6
:101C00006B742A7CE2402A74E3406B7436238DF8AF
:101C1000203037238DF81C300094234608AABE21BB
:101C2000304602F007F9009423460CAABF21304643
:101C300002F0BEF99DF830306B820094234607AA6B
:101C4000BE21304602F0F6F8009423460CAABF21CC
:101C5000304602F0ADF99DF830206B8A43EA02234A
:101C60006B823A238DF818303B238DF814300094A2
:101C7000234606AABE21304602F0DCF80094234633
:101C80000CAABF21304602F093F99DF83030AB82A8
:101C90000094234605AABE21304602F0CBF80094FA
:101CA00023460CAABF21304602F082F99DF830206D
:101CB000AB8A43EA02231BB2AB826A7C297C521AAC
:101CC00007EE902AB8EEE77AB5F912209B1A07EED4
:101CD000903AF8EEE77AC7EE276AC5ED066A0EB0CD
:101CE00070BD00BF40080020A8090020F0B587B0F3
:101CF000074628238DF8143029238DF810301C4E08
:101D000001240094234605AABE21304602F092F831
:101D10000094234603AABF21304602F049F99DF8FA
:101D20000C500094234604AABE21304602F082F8EB
:101D30000094234603AABF21304602F039F99DF8EA
:101D40000C3045EA430307EE903AF8EEE77A094B88
:101D500093ED067A67EE877A1B7C07EE103AB8EEB1
:101D6000C77A77EE277AC7ED007A07B0F0BD00BFDB
:101D700040080020A8090020F0B587B007462A23B4
:101D80008DF814302B238DF810301C4E0125009552
:101D90002B4605AABE21304602F04CF800952B4692
:101DA00003AABF21304602F003F99DF80C400095CC
:101DB0002B4604AABE21304602F03CF800952B4683
:101DC00003AABF21304602F0F3F89DF80C3044EA34
:101DD000032424B207EE904AF8EEE77A084B93ED1D
:101DE000037A67EE877A93ED007AB8EEC77A77EEDA
:101DF000277AC7ED007A07B0F0BD00BF4008002089
:101E0000A809002000B585B04FF48073ADF80C3000
:101E100001230093022303AA5221034802F00AF887
:101E200005B05DF804FB00BF4008002070B584B029
:101E300004461E238DF80C300023ADF80830134EF5
:101E4000012500952B4603AA5221304601F0F2FFEE
:101E50000095022302AA5321304602F0A9F89DF80A
:101E600008209DF8093003EB0223143B2360002B6C
:101E700008DB2368B3F5FA6F02DD4FF4FA632360E1
:101E800004B070BD00232360F3E700BF40080020CA
:101E900000B585B041F21003ADF80C30012300937A
:101EA000022303AAD421034801F0C4FF05B05DF862
:101EB00004FB00BF400800202DE9F04184B08046BB
:101EC0000F46164628238DF80C304F4D0124009400
:101ED000234603AAD421284601F0ACFF00942346F0
:101EE00002AAD521284602F063F89DF80830A8F828
:101EF000003029238DF80C300094234603AAD42106
:101F0000284601F097FF0094234602AAD5212846CF
:101F100002F04EF89DF80820B8F8003043EA02239A
:101F2000A8F800302A238DF80C300094234603AA29
:101F3000D421284601F07EFF0094234602AAD52131
:101F4000284602F035F89DF808303B802B238DF8A9
:101F50000C300094234603AAD421284601F06AFFDE
:101F60000094234602AAD521284602F021F89DF8C4
:101F700008203B8843EA02233B802C238DF80C3059
:101F80000094234603AAD421284601F053FF00946D
:101F9000234602AAD521284602F00AF89DF8083007
:101FA00033802D238DF80C300094234603AAD421CE
:101FB000284601F03FFF0094234602AAD521284677
:101FC00001F0F6FF9DF80820338843EA02233380AE
:101FD000B8F90030002B11DB1B11A8F80030B7F95D
:101FE0000030002B0CDB1B113B80B6F90030002BBE
:101FF00008DB1B11338004B0BDE8F0810F33EBE741
:102000000F33F0E70F33F4E74008002000B585B048
:102010002223ADF80C3001230093022303AA3C21B4
:10202000024801F007FF05B05DF804FB40080020FE
:102030002DE9F04184B080460F46164628238DF8DE
:102040000C304F4D01240094234603AA3C2128461E
:1020500001F0F0FE0094234602AA3D21284601F03B
:10206000A7FF9DF80830A8F8003029238DF80C3020
:102070000094234603AA3C21284601F0DBFE00948D
:10208000234602AA3D21284601F092FF9DF8082030
:10209000B8F8003043EA0223A8F800302A238DF86C
:1020A0000C300094234603AA3C21284601F0C2FECE
:1020B0000094234602AA3D21284601F079FF9DF8AD
:1020C00008303B802B238DF80C300094234603AA64
:1020D0003C21284601F0AEFE0094234602AA3D2191
:1020E000284601F065FF9DF808203B8843EA02235B
:1020F0003B802C238DF80C300094234603AA3C210E
:10210000284601F097FE0094234602AA3D21284666
:1021100001F04EFF9DF8083033802D238DF80C30F0
:102120000094234603AA3C21284601F083FE009434
:10213000234602AA3D21284601F03AFF9DF80820D7
:10214000338843EA02233380B8F90030002B11DBD7
:10215000DB10A8F80030B7F90030002B0CDBDB10E7
:102160003B80B6F90030002B08DBDB10338004B075
:10217000BDE8F0810733EBE70733F0E70733F4E717
:10218000400800200000000010B52DED048B9FEDED
:10219000529B9FED538B544CB0EE491AF0EE691AE6
:1021A000B0EE480AF0EE680A4FF4005221460120D2
:1021B000FFF782F9B0EE491AF0EE691AB0EE480A5C
:1021C000F0EE680A20224FF090410220FFF774F9E8
:1021D000B0EE491AF0EE691AB0EE480AF0EE680A5D
:1021E0004FF4804241490320FFF766F9B0EE491AE7
:1021F000F0EE691AB0EE480AF0EE680A40223C4957
:102200000420FFF759F9B0EE491AF0EE691AB0EE62
:10221000480AF0EE680A4FF4005236490520FFF7ED
:102220004BF9B0EE491AF0EE691AB0EE480AF0EE3A
:10223000680A4FF480724FF090410620FFF73CF996
:10224000B0EE491AF0EE691AB0EE480AF0EE680AEC
:102250004FF4807221460720FFF72EF900F004FBAF
:1022600000F0E8FBFFF70AF900210320FFF736F939
:10227000C8220023022000F0A5F800224FF480714C
:102280004FF0904001F08DFB0A2001F07DF9012212
:102290004FF480714FF0904001F083FBFEF79EFCFD
:1022A00001224021204601F07CFB0A2001F06CF95C
:1022B000FFF7A8FDFFF74EFB0F4803F0C5FE002116
:1022C0000E4804F087F9FFF7AFFBFFF7E1FDFFF7DA
:1022D0009DFEBDEC048B10BD000000000000F03F2F
:1022E0000000000000000000000800480004004852
:1022F00000100048000C00488C080020D80800207E
:1023000070477047704700000D4B83620D4BC362EE
:102310000D4B03630D4B43630D4B03650D4B436541
:102320000D4B83650D4BC3650D4B83670D4BC36729
:102330000D4BC0F880300D4BC0F88430704700BFA3
:102340008921000801230008032300080523000851
:102350000514000839140008791400087B140008DB
:10236000A1050008D5050008D90500088107000867
:102370000138C0B202288CBF002001207047000045
:1023800038B505460C46FFF7F3FF48B144B1054A9E
:10239000137A03EB830102EBC1010C6281F8305028
:1023A00038BD00BFC809002010B50446FFF7E0FFA4
:1023B00028B1034B1A7A83F8B0201C72012010BD9B
:1023C000C809002070B5064615461C46FFF7D0FF29
:1023D00060B155EA040309D0054B197A01EB81027B
:1023E00003EBC20282F830609562D46270BD00BF18
:1023F000C809002010B5204C04F11000FFF784FF3D
:10240000204600F07BFA012384F8B13007E0002079
:10241000194991F8B120024081F8B1200133032B12
:1024200025DC03EB8302D100134A0A44002000217B
:10243000C2E90A01002182F8301011621269002AF3
:10244000E5D003EB8302D1000B4A0A44526952B132
:10245000094A0A44926942B1074A0A44D269002AE9
:10246000D6D00120D4E70020D2E70020D0E7012019
:10247000FFF79AFF10BD00BFC80900203E4B93F83C
:10248000B130002B77D070B588B004463A4B187A3B
:10249000FFF76EFF08B908B070BD00F0D9F920460B
:1024A00000F036FA344B93F8B23043B10A220023DD
:1024B0003149D1E90001FDF7E3FE13434DD02E4B26
:1024C0001E7A93F8B0309E420DD02B4D002200238F
:1024D000C5E9002306EB860305EBC3031B69984798
:1024E0002B7A85F8B03006EB8605234B03EBC50548
:1024F0006B6920469847AB6920469847EB692046B0
:10250000984795F830402046FFF732FF0028C2D0A8
:10251000194B1B7A9C42BED0AA6AEB6A52EA0301AD
:1025200006D0154908684968904271EB03031ED232
:1025300006EB8603104A02EBC3031B6A002BAAD0EA
:1025400098470028A7D006EB86060B4B03EBC60680
:1025500096F83000FFF728FF9DE7074B1A7A0749E6
:10256000684604F029FE684600F048FAA7E72046CE
:10257000FFF71AFFDCE77047C8090020A4790008BC
:1025800082B00A4B1A6E42F001021A661A6E02F00D
:1025900001020092009A9A6D42F080529A659B6DFA
:1025A00003F080530193019B02B07047001002407A
:1025B00010B588B000230393049305930693079303
:1025C0000268144B9A4201D008B010BD124CE36C63
:1025D00043F00203E364E36C03F002030193019B05
:1025E0004FF44063039312230493012305930323C1
:1025F00006930423079303A9084801F045F8A36D47
:1026000043F48003A365A36D03F480030293029B4C
:10261000DAE700BF00580040001002400004004804
:1026200002680B4B9A4200D0704710B5094A936D6F
:1026300023F480039365084C4FF48061204601F039
:1026400011F94FF40061204601F00CF910BD00BFF4
:1026500000580040001002400004004800B589B056
:102660000023039304930593069307930268144B86
:102670009A4202D009B05DF804FB03F5EA339A6D83
:1026800042F400429A659A6D02F400420192019A66
:10269000DA6C42F00402DA64DB6C03F004030293A8
:1026A000029B4FF4E0530393022304930323069306
:1026B0000623079303A9034800F0E6FFDAE700BF0B
:1026C000003C00400008004802680E4B9A4200D0CF
:1026D000704700B583B003F500339A6D42F01002E5
:1026E0009A659B6D03F010030193019B0022114634
:1026F000362000F06FFF362000F0A4FF03B05DF835
:1027000004FB00BF001000400268094B9A4200D051
:10271000704782B003F550431A6E42F480321A6655
:102720001B6E03F480330193019B02B0704700BF1E
:102730000040014000B587B000230193029303934A
:102740000493059302680E4B9A4202D007B05DF8DD
:1027500004FB03F55043DA6C42F00202DA64DB6CEE
:1027600003F002030093009B4FF480430193022384
:1027700002930E23059301A9024800F085FFE5E7C7
:102780000040014000040048FEE7FEE7FEE7FEE7E8
:10279000FEE770477047704708B500F0E3FE08BDDC
:1027A00008B5034B01221A60402001F001F908BD71
:1027B0006405002008B5034B01221A60024803F0AB
:1027C0008EFC08BD600500208C08002008B503467B
:1027D0000B4A126842B10A4A106803446A4693429F
:1027E00006D8074A136008BD054A06491160F2E79A
:1027F00004F09AFB0C2303604FF0FF30F3E700BFB7
:102800007C0A0020B00B00200F49D1F8883043F437
:102810007003C1F888300D4B1A6842F001021A604B
:10282000002098601A6822F0A85222F410221A6040
:102830004FF48052DA601A6822F480221A6098619C
:102840004FF000638B60704700ED00E00010024025
:10285000024B00200021C3E900017047880A0020D4
:10286000B0FA80F040097047002303B170470C496B
:1028700003EB4300C2000A449FED077B82ED027B1D
:1028800082ED067BC200114400220A610133DBB2F3
:10289000EBE700BFAFF30080000000000000000085
:1028A000880A002000000000F8B504460D461746CF
:1028B0001E46FFF7D5FF68B165B10F4804EB44032E
:1028C00000EBC3039FED0A7B83ED027B1D619F61DB
:1028D000DE61F8BD084B04EB440203EBC2020026A4
:1028E0000027C2E9026700211161C2E90667F0E72B
:1028F0000000000000000000880A0020034B18625E
:1029000000220023C0E90023704700BF880A00208E
:1029100000284CD02DE9F0418046002401E001342C
:10292000E4B2444541D8204600F02EFE224B186AFE
:102930000027264602684168121941F10001026031
:1029400041601A685968121941F100011A60596012
:102950003D46002DE3D105EB4503174A02EBC303C7
:102960009A68D968B21847EB01019A60D960D3F828
:1029700018C0DB69624571EB030213D35CEA030301
:1029800010D005EB45030C4A02EBC3031A694AB1A8
:1029900005EB4500084B03EBC0009FED057B80ED88
:1029A000027B90470135EDB2D3E7BDE8F081704777
:1029B0000000000000000000880A002070B50546F5
:1029C0000E46FDF705FC04463046FDF701FC0444C5
:1029D000E1B2284604F0D8FB3146284604F00CFC4E
:1029E00070BD000010B5044C206804F0CFFA01203F
:1029F00004F0C4FA206010BDAC0A002010B5064BEC
:102A00001C682046FDF7E4FB4FF47A7382B221463E
:102A1000024804F08AF910BDAC0A00202409002005
:102A200008B50146024B1868FFF7C8FF08BD00BF94
:102A3000AC0A002008B50C480C4B03604FF4E1339E
:102A4000436000238360C36003610C2242618361A1
:102A5000C3610362436204F00CFA10B9FFF7C2FFCE
:102A600008BDFEF73DFEF9E72409002000380140CB
:102A700010B5C4B22021204600F028FC00F0F80276
:102A800042F085022021204600F00CFC10BD10B55C
:102A9000C4B22021204600F019FC00F0F80242F0F8
:102AA00085022021204600F0FDFB10BD10B5044634
:102AB00000F0F0FB0F21E0B200F008FC10BD0000B8
:102AC0002DE9F04383B05FFA80F9022301AAB02117
:102AD000484600F011FC9DF804305F089DF8056041
:102AE0007608022301AAB621484600F005FC9DF8AD
:102AF00005502D022DB29DF804301D43022301AA7A
:102B0000BA21484600F0F8FB9DF80540240224B2A3
:102B10009DF804301C43022301AAA821484600F076
:102B2000EBFB9DF805301B021BB29DF804201343FC
:102B30005B1B07EE903AB8EEE77AF31B07EE903A8C
:102B4000F8EEE77A67EE277A641B07EE104AB8EED4
:102B5000C77A87EE870A07EE907AF8EEE77A70EE8A
:102B6000277AB2EE040A67EE807A9FED0C7AF4EED3
:102B7000C77AF1EE10FA07DCF5EEC07AF1EE10FA42
:102B800004D5DFED077A01E0DFED047AB2EE040A46
:102B900087EE800A03B0BDE8F08300BF00007A44EE
:102BA000000000002DE9F04182B05FFA80F80223B6
:102BB00001AAB221404600F09FFB3521404600F0BB
:102BC00085FB070207F440779DF804301F4384011A
:102BD00004F440749DF805000443FF08E40804234E
:102BE0000DEB0302BC21404600F086FB9DF805601A
:102BF000360236B29DF804301E439DF807502D0270
:102C00002DB29DF806301D43022301AAAA21404699
:102C100000F072FB9DF805301B021BB29DF80420EA
:102C200013439B1B07EE903AB8EEE77AE31B07EEDF
:102C3000903AF8EEE77A67EE277AAD1B07EE105A66
:102C4000B8EEC77AC7EE876A07EE907AB8EEE70A61
:102C500036EE800A02B0BDE8F08100B583B002AB69
:102C600003E903009DF8002020213C2000F01AFB1E
:102C70009DF8012021213C2000F014FB9DF802204A
:102C800022213C2000F00EFB9DF8032023213C2054
:102C900000F008FB9DF8042024213C2000F002FBFA
:102CA00003B05DF804FB08B522213C2000F00EFBC8
:102CB00000F0FC0242F0030222213C2000F0F2FA74
:102CC00008BD10B5044622213C2000F0FFFA00F0B8
:102CD000DF020CB142F0200222213C2000F0E2FA97
:102CE00010BD08B500F0D6FA0F213C2000F0EEFA36
:102CF00008BD000030B585B0044621213C2000F01D
:102D0000E5FA054606236A46A8213C2000F0F4FABD
:102D100000230FE05A0002F11101694411F8100C70
:102D200010326A4412F8101C01EB002122F8081C32
:102D30000133DBB2022BEDD905F06005402D0CD03C
:102D400006D86DB1202D0ED19FED157A002323E01A
:102D5000602D0BD19FED137AF8E79FED137AF5E71D
:102D60009FED127AF2E79FED127AEFE79FED107A6E
:102D7000ECE704AA02EB430232F9082C07EE902A92
:102D8000F8EEE77A67EE877AFDEEE77A17EE902A9B
:102D900024F813200133DBB2022BEAD905B030BD91
:102DA000E17A943EE17A143FF628DC3E295C0F3E3E
:102DB0000000000030B583B0054600240CE004F1AB
:102DC0002801C9B2E8B200F081FA04F108036B44AB
:102DD00003F8040C0134E4B2022CF0D900231A46A3
:102DE00009E003F10801694411F8041CD80081408E
:102DF0000A430133DBB2022BF3D912F4000F01D0E6
:102E000042F07F42642303FB02F2002A0ADB121322
:102E100007EE902AF8EEE77A9FED040A87EE800A23
:102E200003B030BD02F6FF72F1E700BF0000C842F8
:102E300030B583B0054600240CE004F12B01C9B283
:102E4000E8B200F043FA04F108036B4403F8040C01
:102E50000134E4B2012CF0D99DF805209DF804302E
:102E600003EB02239BB2074A82FB03239B0807EE76
:102E7000903AF8EEE77AB2EE040A87EE800A03B0E1
:102E800030BD00BF6766666610B5C4B21A21204621
:102E900000F01CFA00F0FE0242F001021A21204666
:102EA00000F000FA1021204600F010FA00F08D0228
:102EB00042F032021021204600F0F4F910BD08B5AE
:102EC000FFF7E2FF08BD08B5FFF7DEFF08BD10B54C
:102ED000044600F0DFF90F21E0B200F0F7F910BD71
:102EE00010B504461021D42000F0F0F9E2B200F051
:102EF000030002431021D42000F0D4F91221D42081
:102F000000F0E4F900F0BB0242EA14221221D420BE
:102F100000F0C8F910BD08B51021D42000F0D6F992
:102F200000F00F021021D42000F0BCF908BD10B54C
:102F300004461521D42000F0C9F900F0EF020CB1CD
:102F400042F010021521D42000F0ACF910BD10B5EC
:102F500004461121D42000F0B9F9E2B200F00300D8
:102F600002431121D42000F09DF91221D42000F059
:102F7000ADF900F0BB0242EA14221221D42000F085
:102F800091F910BD08B51121D42000F09FF900F08F
:102F90000F021121D42000F085F908BD10B50446B8
:102FA0001621D42000F092F900F07F020CB142F01B
:102FB00080021621D42000F075F910BD08B500F08C
:102FC00069F90F21D42000F081F908BD08B500F09F
:102FD00061F90F21D42000F079F908BD30B585B032
:102FE00004461021D42000F071F9054606236A46F4
:102FF0002821D42000F080F900230FE05A0002F1CC
:103000001101694411F8100C10326A4412F8101CB6
:1030100001EB002122F8081C0133DBB2022BEDD9B1
:1030200005F00C050C2D08D8DFE805F0140707079C
:10303000110707070B0707070E009FED137A002300
:103040001EE09FED127AFAE79FED117AF7E79FED08
:10305000117AF4E79FED107AF1E704AA02EB43023C
:1030600032F9082C07EE902AF8EEE77A67EE877AB5
:10307000FDEEE77A17EE902A24F813200133DBB235
:10308000022BEAD905B030BD0000000023DBF93D7A
:1030900023DB793E23DBF93E23DB793D30B585B078
:1030A00004461121D42000F011F9054606236A4692
:1030B0002221D42000F020F900230FE05A0002F171
:1030C0001101694411F8100C10326A4412F8101CF6
:1030D00001EB002122F8081C0133DBB2022BEDD9F1
:1030E00005F00C050C2D08D8DFE805F014070707DC
:1030F0000B0707070E07070711009FED127A002341
:103100001CE09FED117AFAE79FED107AF7E79FED4B
:10311000107AF4E79FED0F7AF1E704AA02EB43027D
:1031200032F9082C07EE902A04EB8302F8EEE77AD6
:1031300067EE877AC2ED007A0133DBB2022BECD95D
:1031400005B030BD0000000000008C4100000C42C2
:1031500000008C4200000C4130B589B0204CE36C7B
:1031600043F00203E364E36C03F002030193019B69
:103170004FF4406303931223049301230593032325
:10318000069304230793174D03A9284600F07CFA01
:1031900003A9284600F078FAA36D43F48003A365E1
:1031A000A36D03F480030293029BA36B43F480039B
:1031B000A363A36B23F48003A36300220F212120C8
:1031C00000F008FA212000F03DFA00220F21222011
:1031D00000F000FA222000F035FA09B030BD00BF3F
:1031E000001002400004004838B504460A4B036052
:1031F0000A4B4360002585600123C360056145617A
:10320000C5610562FFF7A8FF204600F09BFD294637
:10321000204601F037F938BD005800408126700083
:1032200010B5044600F0ECFD2046FFF7DDFF10BDB1
:1032300070B584B005460C464FF47A710291BDF822
:103240002410019108990091214600F06FFF064675
:1032500010B9304604B070BD21462846FFF7E0FFA4
:10326000F7E770B584B005460C464FF47A710291C9
:10327000BDF82410019108990091214601F02AF827
:10328000064610B9304604B070BD21462846FFF707
:10329000C7FFF7E708B50248FFF7A6FF08BD00BF64
:1032A000B00A002000B585B08DF80F2001230193EE
:1032B0000DF10F0200920A4601460348FFF7B8FFDE
:1032C00005B05DF804FB00BFB00A002000B585B072
:1032D0000A4600238DF80F30012301930DF10F01F1
:1032E000009101460348FFF7BCFF9DF80F0005B0B1
:1032F0005DF804FBB00A002000B583B00193009292
:1033000001230A4601460348FFF7ABFF80B203B032
:103310005DF804FBB00A002010B582B00F4B9B682B
:1033200098476A2802D0012002B010BD0B4B0C4A0E
:10333000136030228DF8012000248DF802408DF8B2
:10334000064040228DF804208DF803408DF8074098
:103350001B6844F2304098472046E5E79C04002073
:10336000800B002008B5034B1B6813B11B6B03B126
:10337000984708BD800B002010B582B0114B9B68A8
:1033800098476A2802D0012002B010BD0D4B0E4AAA
:10339000136000248DF8004030228DF801208DF854
:1033A00002408DF8034040228DF804208DF805403E
:1033B0000C228DF806201B6844F23C4098472046BA
:1033C000E2E700BF68040020840B002008B5034B2F
:1033D0001B6813B11B6B03B1984708BD840B002019
:1033E00008B5084B5B68BE209847BC2801D0012077
:1033F00008BD044B044A13601B68BE209847002098
:10340000F6E700BF0C040020880B002008B5034B32
:103410001B689B68BE20984708BD00BF880B002032
:1034200010B582B00F4B9B6898473D2802D0012011
:1034300002B010BD0B4B0C4A136058228DF80020CF
:1034400000248DF801408DF8024008228DF80320F9
:1034500040228DF804201B6802AA12E90300984755
:103460002046E5E7180400208C0B002008B5034B2C
:103470001B6813B11B6B03B1984708BD8C0B002070
:1034800008B5084B5B68BA209847B12801D00120E5
:1034900008BD044B044A13601B68BA2098470020FB
:1034A000F6E700BF5C040020900B002008B5034B3A
:1034B0001B689B68BA20984708BD00BF900B00208E
:1034C00010B5064C064B2360FFF7E4FE23681B682B
:1034D0000021BE209847002010BD00BF940B0020A3
:1034E000FC03002008B5034B1B68DB68BE2098472F
:1034F00008BD00BF940B0020104B1B780BB90120B6
:10350000704710B504464FF47A70B0FBF3F30C4AE1
:103510001068B0FBF3F000F0A3F868B90F2C01D9E4
:1035200001200AE0002221464FF0FF3000F052F85F
:10353000024B5C60002000E0012010BDD0040020A0
:10354000F803002010B5032000F032F80020FFF748
:10355000D3FF10B10124204610BD0446FFF710F838
:10356000F9E70000034B1B78034A11680B44136012
:10357000704700BFD0040020980B0020014B186852
:10358000704700BF980B002038B50446FFF7F6FFE0
:103590000546B4F1FF3F02D0044B1B781C44FFF7F3
:1035A000EDFF401BA042FAD338BD00BFD00400207D
:1035B000074AD36823F4E0631B041B0C000200F4E9
:1035C000E060034343F0BF6343F40033D3607047CC
:1035D00000ED00E000B5194BDB68C3F30223C3F133
:1035E000070CBCF1040F28BF4FF0040C03F1040ECC
:1035F000BEF1060F18D9033B4FF0FF3E0EFA0CFC4C
:1036000021EA0C0199400EFA03F322EA030319435D
:1036100000280BDB0901C9B200F1604000F56140F0
:1036200080F800135DF804FB0023E5E700F00F00CD
:103630000901C9B2024B1954F4E700BF00ED00E0E4
:1036400014ED00E0002807DB00F01F024009012311
:103650009340024A42F82030704700BF00E100E08A
:103660000138B0F1807F0BD24FF0E0235861054A5A
:10367000F02182F823100020986107221A61704718
:103680000120704700ED00E0F0B583B0002340E07A
:10369000C56A25EA0C0CC4F3C0049C4044EA0C043F
:1036A000C46262E0062400E00024B4403C430235DA
:1036B000684E46F82540684C2568D44325EA020642
:1036C0004F6817F4803F01D042EA0506624D2E6034
:1036D0006D6804EA05064F6817F4003F01D042EA1E
:1036E00005065D4D6E60AD6804EA05064F6817F487
:1036F000801F01D042EA0506574DAE60ED682C40B0
:103700004E6816F4001F01D042EA0504524AD46004
:1037100001330A6832FA03F400F099804FF0010C8B
:103720000CFA03FC1CEA0202F2D04C68651E012D63
:1037300003D9112C01D0122C12D185685E0003240C
:10374000B44025EA0405CC68B4402C438460456845
:1037500025EA0C054C68C4F300149C402C434460DB
:103760004C6804F00305032D92D0C6684FEA430C61
:10377000032505FA0CF5EC4326EA050E8D6805FADB
:103780000CF545EA0E05C5604D68022D01D0122DDD
:1037900012D1DE08083650F8267003F007054FEA0C
:1037A000850E0F2505FA0EF527EA05070D6905FABE
:1037B0000EF53D4340F82650056825404C6804F05E
:1037C000030404FA0CF42C4304604C6814F0805F8A
:1037D0009ED0224C256E45F001052566246E04F02E
:1037E00001040194019C9D08AE1C1A4C54F82670EB
:1037F00003F00304A6000F24B44027EA0407B0F145
:10380000904F3FF451AF164CA04216D004F580649F
:10381000A04214D004F58064A04212D004F5806464
:10382000A04210D004F58064A0420ED004F580645C
:10383000A0423FF437AF072437E7012435E70224DD
:1038400033E7032431E704242FE705242DE703B0F1
:10385000F0BD00BF00000140000401400010024024
:1038600000040048002331FA03F200F08B80F0B529
:1038700032E0062500E0002505FA0CFCA44565D0E1
:1038800004685D004FF0030C0CFA05FC44EA0C04DC
:1038900004604FEAD30E0EF1080E50F82E4003F0EC
:1038A0000705AE000F25B54024EA050440F82E4078
:1038B000846824EA0C048460446824EA02044460B6
:1038C000C46824EA0C04C460C46A24EA0202C26226
:1038D000013331FA03F254D001229A4012EA01076F
:1038E000F6D04FEA930E0EF10205274C54F825400E
:1038F00003F0030C4FEA8C0C0F2505FA0CF634404C
:10390000B0F1904FB7D0214DA84215D005F5806594
:10391000A84213D005F58065A84211D005F5806551
:10392000A8420FD005F58065A8420DD005F5806549
:10393000A8429ED007259FE701259DE702259BE72A
:10394000032599E7042597E7052595E7104C256899
:1039500025EA07052560656825EA07056560A5680D
:1039600025EA0705A560E56825EA0707E760064F31
:103970000EF1020457F8245025EA060547F82450B2
:103980007EE7F0BD704700BF000001400004004822
:10399000000401400369194201D001207047002052
:1039A00070470AB1816170478162704770470000BB
:1039B00008B5054B5B69034200D108BD024B586155
:1039C000FFF7F4FFF9E700BF0004014003689A69BC
:1039D00012F0020F01D000229A6203689A6912F075
:1039E000010F03D19A6942F001029A61704730B425
:1039F000029D046860684FEA555C0CF4806C4CF0E2
:103A00007F7C4CF4583C4CF47F7C4CF0030C20EA57
:103A10000C00C1F3090141EA024119432943014362
:103A2000616030BC7047F8B505460E46174603681E
:103A30009B6913F0100F01D10020F8BD2B689C6921
:103A400014F0200F17D1B6F1FF3FF7D0FFF796FD26
:103A5000C01BB04201D8002EF0D16B6C43F02003A4
:103A60006B64202385F84130002385F8423085F8C7
:103A700040300120E1E71022DA612B682024DC616C
:103A80002846FFF7A3FF2A68536823F0FF7323F447
:103A90008B3323F4FF7323F0010353606B6C43F00B
:103AA00004036B6485F84140002385F8423085F8B3
:103AB00040300120C1E770B504460D461646236824
:103AC0009B6913F0020F1DD1324629462046FFF7AD
:103AD000AAFFC8B9B5F1FF3FF1D0FFF74FFD801B3A
:103AE000A84201D8002DEAD1636C43F0200363643F
:103AF000202384F84130002384F8423084F8403099
:103B0000012000E0002070BD0120FCE72DE9F0411C
:103B10000646884617461D463468A46938EA0403F9
:103B20000CBF4FF0010C4FF0000CBC4518D1B5F1A3
:103B3000FF3FF1D0FFF722FD069BC01AA84201D833
:103B4000002DE9D1736C43F020037364202386F8C1
:103B50004130002386F8423086F84030012000E0F2
:103B60000020BDE8F08100002DE9F04182B004465C
:103B700090461D46089E099F194B00934FF0807395
:103B8000EAB2FFF734FF3A4631462046FFF793FF8B
:103B9000F8B9012D0ED123685FFA88F29A62009776
:103BA0003346002280212046FFF7B0FFA8B902B0BB
:103BB000BDE8F08123684FEA18229A623A463146FE
:103BC0002046FFF778FF30B923685FFA88F29A62DF
:103BD000E5E70120EBE70120E9E70120E7E700BF87
:103BE000002000802DE9F04182B0044690461D4639
:103BF000089E099F184B00930023EAB2FFF7F7FED7
:103C00003A4631462046FFF756FFF8B9012D0ED14E
:103C100023685FFA88F29A620097334600224021B7
:103C20002046FFF773FFA8B902B0BDE8F081236812
:103C30004FEA18229A623A4631462046FFF73BFF88
:103C400030B923685FFA88F29A62E5E70120EBE772
:103C50000120E9E70120E7E70020008070B5054674
:103C60000C4616462B689B6913F0200F1AD132467A
:103C700021462846FFF7D7FEB0B9FFF77FFC801B2F
:103C8000A04201D8002CEDD16B6C43F020036B6493
:103C9000202385F84130002385F8423085F84030F4
:103CA000012070BD0020FCE70120FAE770B5044652
:103CB0000D46164623689B6913F0040F3ED1324629
:103CC00029462046FFF7AFFE0146002838D1236879
:103CD0009A6912F0200F13D1FFF750FC801BA84205
:103CE00001D8002DE6D1636C43F0200363642023E8
:103CF00084F84130002384F840300121084670BD2B
:103D00009A6912F0040F02D0228D002AF6D12022E7
:103D1000DA6121684B6823F0FF7323F48B3323F4BB
:103D2000FF7323F001034B600023636484F8412098
:103D300084F8423084F840300121DFE70021DDE7DC
:103D40000121DBE7002859D010B5044690F8413036
:103D5000002B43D0242384F841302268136823F0D9
:103D6000010313606368226823F0706313612268A3
:103D7000936823F400439360E368012B33D0A36876
:103D8000226843F404439360E368022B31D0226835
:103D9000536843F0007343F4004353602268D368D0
:103DA00023F40043D360236962691343A169226845
:103DB00043EA0123D360E369216A22680B4313605D
:103DC0002268136843F0010313600020606420231D
:103DD00084F84130206384F8420010BD80F8403000
:103DE000FEF7E6FBB6E7A368226843F4004393605E
:103DF000CAE723684FF400625A60C8E701207047A1
:103E0000A8B110B50446242380F841300268136835
:103E100023F001031360FEF703FC0020606484F8C4
:103E20004100206384F8420084F8400010BD012066
:103E3000704700002DE9F04782B00F460A9E90F8C7
:103E40004110C9B2202940F0A3800446904699460B
:103E500090F84030012B00F09F804FF0010A80F86D
:103E600040A0FFF78BFB05460090192352464FF404
:103E700000412046FFF74AFE002840F08F802123B2
:103E800084F84130102384F8423000236364C4F87E
:103E90002480A4F82A906363638D9BB2FF2B0AD918
:103EA000FF222285414B00934FF080733946204614
:103EB000FFF79DFD18E0628D92B222853B4B009387
:103EC0004FF00073D2B239462046FFF790FD0BE069
:103ED000628D92B22285002300934FF00073D2B21C
:103EE00039462046FFF783FD638D9BB2002B33D00C
:103EF0002A4631462046FFF7DEFD002850D1626A8F
:103F0000236812789A62636A01336362638D9BB29D
:103F1000013B9BB26385238D013B9BB22385628D60
:103F200092B2002AE0D0002BDED100953346002269
:103F300080212046FFF7EAFDA0BB638D9BB2FF2BDB
:103F4000C6D9FF222285002300934FF080733946A3
:103F50002046FFF74CFDC7E72A4631462046FFF7CB
:103F60007DFE08BB23682022DA6121684B6823F0BC
:103F7000FF7323F48B3323F4FF7323F001034B60AF
:103F800084F84120002384F8423084F8403000E077
:103F9000022002B0BDE8F0870220FAE70120F8E72E
:103FA0000120F6E70120F4E70120F2E7002000807D
:103FB0002DE9F04782B00F460A9E90F84110C9B231
:103FC000202940F0A28004469046994690F840305F
:103FD000012B00F09E804FF0010A80F840A0FFF70F
:103FE000CDFA05460090192352464FF40041204671
:103FF000FFF78CFD002840F08E80222384F84130AA
:10400000102384F8423000236364C4F82480A4F8A9
:104010002A906363638D9BB2FF2B0AD9FF2222850E
:10402000414B00934FF0807339462046FFF7DFFC89
:1040300018E0628D92B222853B4B00934FF00073E3
:10404000D2B239462046FFF7D2FC0BE0628D92B225
:104050002285002300934FF00073D2B239462046E8
:10406000FFF7C5FC638D9BB2002B32D02A46314648
:104070002046FFF71BFE00284FD123685A6A636A67
:104080001A70636A01336362228D013A92B222850B
:10409000638D9BB2013B9BB26385638D9BB2002B0A
:1040A000E0D0002ADED10095334680212046FFF77C
:1040B0002DFDA0BB638D9BB2FF2BC7D9FF222285AC
:1040C000002300934FF0807339462046FFF78FFCA2
:1040D000C8E72A4631462046FFF7C0FD08BB2368E3
:1040E0002022DA6121684B6823F0FF7323F48B33BD
:1040F00023F4FF7323F001034B6084F84120002375
:1041000084F8423084F8403000E0022002B0BDE87C
:10411000F0870220FAE70120F8E70120F6E7012006
:10412000F4E70120F2E700BF002400802DE9F04F02
:1041300083B00E46BDF834A00E9D90F84110C9B270
:10414000202940F0BB800446904699460C9BCBB199
:10415000BAF1000F16D090F84030012B00F0B28079
:104160004FF0010B80F840B0FFF708FA07460090C7
:1041700019235A464FF400412046FFF7C7FC30B1DF
:1041800001209CE04FF400736364012097E0212339
:1041900084F84130402384F84230002363640C9A51
:1041A0006262A4F82AA06363019700954B464246D9
:1041B00031462046FFF7D8FC70B9638D9BB2FF2BC8
:1041C0000FD9FF222285002300934FF080733146E0
:1041D0002046FFF70CFC21E0002384F840305846CD
:1041E0006DE0628D92B22285002300934FF0007340
:1041F000D2B231462046FFF7FAFB0FE0628D92B251
:104200002285002300934FF00073D2B2314620463E
:10421000FFF7EDFB638D9BB2002B33D03A46294666
:104220002046FFF748FC00284ED1626A23681278C6
:104230009A62636A01336362638D9BB2013B9BB2F6
:104240006385238D013B9BB22385628D92B2002A48
:10425000E0D0002BDED100972B46002280212046A3
:10426000FFF754FC90BB638D9BB2FF2BC6D9FF2296
:104270002285002300934FF0807331462046FFF7DC
:10428000B6FBC7E73A4629462046FFF7E7FCF8B9F0
:1042900023682022DA6121684B6823F0FF7323F43E
:1042A0008B3323F4FF7323F001034B6084F8412028
:1042B000002384F8423084F8403000E0022003B04C
:1042C000BDE8F08F0220FAE70120F8E70120F6E7C9
:1042D0000120F4E72DE9F04F83B00E46BDF834A07D
:1042E0000E9D90F84110C9B2202940F0BC800446D0
:1042F000904699460C9BCBB1BAF1000F16D090F8BE
:104300004030012B00F0B3804FF0010B80F840B03B
:10431000FFF734F90746009019235A464FF400413D
:104320002046FFF7F3FB30B101209DE04FF400730E
:104330006364012098E0222384F84130402384F80C
:104340004230002363640C9A6262A4F82AA063637B
:10435000019700954B46424631462046FFF742FC06
:1043600070B9638D9BB2FF2B0FD9FF222285444B7E
:1043700000934FF0807331462046FFF738FB21E071
:10438000002384F8403058466EE0628D92B2228558
:104390003B4B00934FF00073D2B231462046FFF7FB
:1043A00026FB0FE0628D92B22285002300934FF02E
:1043B0000073D2B231462046FFF719FB638D9BB2E2
:1043C000002B34D000972B46002204212046FFF713
:1043D0009DFB00284DD123685A6A636A1A70636A8C
:1043E00001336362228D013A92B22285638D9BB2C2
:1043F000013B9BB26385638D9BB2002BDED0002A0C
:10440000DCD100972B4680212046FFF77FFB90BB35
:10441000638D9BB2FF2BC5D9FF2222850023009319
:104420004FF0807331462046FFF7E1FAC6E73A467F
:1044300029462046FFF712FCF8B923682022DA61EA
:1044400021684B6823F0FF7323F48B3323F4FF734D
:1044500023F001034B6084F84120002384F84230AC
:1044600084F8403000E0022003B0BDE8F08F022065
:10447000FAE70120F8E70120F6E70120F4E700BFA2
:104480000024008090F84130DBB2202B24D190F83A
:104490004030012B22D0012380F84030242380F8C3
:1044A00041300268136823F0010313600268136847
:1044B00023F4805313600268136819431160026883
:1044C000136843F001031360202380F84130002378
:1044D00080F840301846704702207047022070472D
:1044E00090F84130DBB2202B22D190F84030012BE4
:1044F00020D0012380F84030242380F84130026826
:10450000136823F0010313600268136823F47063D7
:1045100043EA012111600268136843F0010313604C
:10452000202380F84130002380F84030184670473F
:104530000220704702207047024B186800F4C060E8
:10454000704700BF00700040B0F5007F0FD01F4BD8
:104550001B6803F4C063B3F5806F34D01B4A136843
:1045600023F4C06343F48063136000207047174B4B
:104570001B6803F4C063B3F5007F20D0134A1368AF
:1045800023F4C06343F400731360114B1B683222A1
:1045900002FB03F30F4AA2FB03239B0C013300E051
:1045A000013B0A4A526912F4806F01D0002BF7D107
:1045B000064B5B6913F4806F03D100207047002025
:1045C0007047032070470020704700BF0070004014
:1045D000F803002083DE1B4330B583B00446204B34
:1045E0009B6D13F0805F0BD0FFF7A6FFB0F5007F47
:1045F00017D0802C1FD82DD0702C2DD000211BE07F
:10460000174DAB6D43F08053AB65AB6D03F080533A
:104610000193019BFFF790FFAB6D23F08053AB65D7
:10462000E4E7802C03D9A02C03D9022104E0002167
:1046300002E0012100E003210A4A136823F0070386
:104640000B431360136803F007038B4206D100206D
:1046500003B030BD0221EFE70121EDE70120F7E7CC
:104660000010024000200240284A9368D26802F0FD
:10467000030213F00C030AD00C2B06D0042B1FD01E
:10468000082B20D00020024610E0012AF6D11F4A54
:10469000126812F0080F0CD11C4AD2F89420C2F311
:1046A00003221B4951F8222043B100200C2B0DD0CE
:1046B0007047164A1268C2F30312F2E71046F5E794
:1046C00014480022F2E714480022EFE70F4BDB68A2
:1046D00003F00303022B16D0032B00D10E4A0B4923
:1046E000C868C0F30210431CC868C0F3062002FB70
:1046F00000F0B0FBF3F0CB68C3F3416301335B0020
:10470000B0FBF3F0D4E7034AE9E700BF0010024032
:10471000E07800080024F40000127A00002800F07D
:10472000FC82F0B583B00446964B9D6805F00C05FD
:10473000DE6806F00306036813F0100F5AD0E5B1E7
:104740000C2D18D0A369002B00F0BB808D4A136894
:1047500043F001031360FEF711FF0746894B1B6806
:1047600013F0020F40F09A80FEF708FFC01B0228EA
:10477000F4D90320DCE2012EE4D1824B1B6813F054
:10478000020F03D0A369002B00F0C982206A7D4B81
:104790001B6813F0080F5BD07A4B1B6803F0F00323
:1047A00098425CD8774B1A6842F008021A601A687F
:1047B00022F0F002216A0A431A605A6822F47F420A
:1047C000E16942EA01225A60002D60D0FFF74CFFF8
:1047D0006C4B9B68C3F303136B4AD35C03F01F035A
:1047E000D8406A4B18606A4B1868FEF785FE0028AF
:1047F00040F09E82236813F0010F00F08180082DA5
:1048000075D00C2D71D06368B3F5803F00F09780B0
:10481000B3F5A02F00F099805A4B1A6822F4803229
:104820001A601A6822F480221A606368002B00F074
:104830009980FEF7A3FE0746524B1B6813F4003F16
:104840005ED1FEF79BFEC01B6428F5D903206FE202
:104850004C4BD3F894301B0903F0F003A0E7FFF7AB
:10486000BBFE002840F05D82464B1A6842F0080209
:104870001A601A6822F0F002216A0A431A605A6824
:1048800022F47F42E16942EA01225A609EE7206AEF
:10489000FFF7A2FE002899D0012049E2394B1A689F
:1048A00042F008021A601A6822F0F002216A0A43F4
:1048B0001A605A6822F47F42E16942EA01225A6092
:1048C00098E7304A136823F001031360FEF756FEA1
:1048D00007462C4B1B6813F0020F8BD0FEF74EFEE1
:1048E000C01B0228F5D9032022E2032E8BD1254BD1
:1048F0001B6813F4003F03D06368002B00F01382A1
:10490000236813F0020F58D0042D45D00C2D41D050
:10491000E368002B77D01B4A136843F4807313605D
:10492000FEF72CFE0646174B1B6813F4806F61D10F
:10493000FEF724FE801B0228F5D90320F8E1114A76
:10494000136843F4803313606FE703F18043A3F5EA
:104950003C331A6842F480221A601A6842F48032AA
:104960001A6062E7FEF70AFE0746064B1B6813F45F
:10497000003FC5D0FEF702FEC01B6428F5D9032016
:10498000D6E100BF0010024010790008F8030020B3
:10499000D4040020022EBBD1954B1B6813F4806F0A
:1049A00003D0E368002B00F0C081914A536823F0E4
:1049B000F853216943EA01635360236813F0080F39
:1049C0004CD063699BB38A4AD2F8943043F0010318
:1049D000C2F89430FEF7D2FD0646854BD3F89430EA
:1049E00013F0020F3AD1FEF7C9FD801B0228F4D95B
:1049F00003209DE17E4A536823F0F853216943EA7E
:104A000001635360D9E77A4A136823F48073136013
:104A1000FEF7B4FD0646764B1B6813F4806FCCD0CE
:104A2000FEF7ACFD801B0228F5D9032080E1704A17
:104A3000D2F8943023F00103C2F89430FEF79EFDC3
:104A400006466B4BD3F8943013F0020F06D0FEF7F6
:104A500095FD801B0228F4D9032069E1236813F037
:104A6000040F7AD0624B9B6D13F0805F36D1604BA0
:104A70009A6D42F080529A659B6D03F080530193CA
:104A8000019B01265B4B1B6813F4807F28D0A36831
:104A9000012B39D0052B3FD0554BD3F8902022F075
:104AA0000102C3F89020D3F8902022F00402C3F84A
:104AB0009020A368002B3DD0FEF760FD07464C4BCD
:104AC000D3F8903013F0020F46D1FEF757FDC01B0C
:104AD00041F288339842F2D9032029E10026D1E738
:104AE000444A136843F480731360FEF747FD07469A
:104AF000404B1B6813F4807FC9D1FEF73FFDC01BFC
:104B00000228F5D9032013E1394AD2F8903043F056
:104B10000103C2F89030CCE7354BD3F8902042F037
:104B20000402C3F89020D3F8902042F00102C3F8A9
:104B30009020BEE7FEF722FD07462D4BD3F89030BC
:104B400013F0020F08D0FEF719FDC01B41F28833A5
:104B50009842F2D90320EBE06EBBA36A002B00F071
:104B6000E680022B2DD00C2D00F0E880204B1A6837
:104B700022F080721A601B6813F0205F04D11C4A77
:104B8000D36823F00303D360194AD36823F08873F2
:104B900023F48033D360FEF7F1FC0446144B1B680A
:104BA00013F0007F00F0B780FEF7E8FC001B02283E
:104BB000F4D90320BCE00E4A936D23F08053936533
:104BC000CBE70B4BDB6803F00301E26A914213D0A1
:104BD0000C2D00F0AF80064B1B6813F0806F40F087
:104BE000AB80034B1B6813F0805F31D001209FE046
:104BF000001002400070004003F07002216B013988
:104C0000B2EB011FE4D103F4FE42616BB2EB012F62
:104C1000DED103F40031A26B073A18BF01229142A2
:104C2000D6D103F4C001E26B5208013AB1EB425F06
:104C3000CED103F0C063226C5208013AB3EB426F4D
:104C4000C6D13F4B1B6813F0007F4AD000206FE0B5
:104C50003B4A136823F080731360FEF78FFC054610
:104C6000374B1B6813F0007F06D0FEF787FC401B14
:104C70000228F5D903205BE0314AD3683149194055
:104C8000E36A206B013843EA0013606B43EA0023B8
:104C9000E06B4008013843EA4053206C400801387B
:104CA00043EA4063A06B000943EA40430B43D360EF
:104CB000136843F080731360D36843F08073D3604C
:104CC000FEF75CFC04461E4B1B6813F0007F06D108
:104CD000FEF754FC001B0228F5D9032028E0002031
:104CE00026E0174B1A6842F080721A60DA6842F0C8
:104CF0008072DA60FEF742FC0446114B1B6813F029
:104D0000007F06D1FEF73AFC031B022BF5D90320E6
:104D10000EE000200CE000200AE001207047012096
:104D200006E0012004E0012002E0012000E0002074
:104D300003B0F0BD0120FBE70120F9E70120F7E710
:104D4000001002408C809DF9002800F0988070B51A
:104D50000C4605464E4B1B6803F007038B420BD2F3
:104D60004B4A136823F007030B431360136803F0E7
:104D700007038B4240F085802B6813F0010F39D078
:104D80006B68032B09D0022B26D063BB414A126803
:104D900012F0020F06D1012070E03E4A126812F0B4
:104DA000007F70D03B498A6822F0030213438B6076
:104DB000FEF7E4FB0646374B9B6803F00C036A687A
:104DC000B3EB820F16D0FEF7D9FB801B41F288337C
:104DD0009842F0D9032051E02E4A126812F4003FA5
:104DE000E0D101204AE02B4A126812F4806FD9D139
:104DF000012043E02B6813F0020F06D0254A936888
:104E000023F0F003A9680B439360214B1B6803F068
:104E10000703A3420AD91E4A136823F0070323435A
:104E20001360136803F00703A3422ED12B6813F01D
:104E3000040F06D0174A936823F4E063E9680B4334
:104E400093602B6813F0080F07D0124A936823F47D
:104E50006053296943EAC1039360FFF705FC0D4BDA
:104E60009B68C3F303130C4AD35C03F01F03D840C1
:104E70000A4B18600A4B1868FEF73EFB70BD012014
:104E800070470120FAE70120F8E70120F6E700BFAC
:104E9000002002400010024010790008F8030020B2
:104EA000D4040020014B1868704700BFF8030020AD
:104EB00008B5FFF7F7FF054B9B68C3F30223044ACD
:104EC000D35C03F01F03D84008BD00BF00100240B0
:104ED0002079000808B5FFF7E5FF054B9B68C3F391
:104EE000C223044AD35C03F01F03D84008BD00BFAF
:104EF0000010024020790008F8B504460F46594BCF
:104F0000DB6813F0030F18D0564BDB6803F0030384
:104F10000268934202D001252846F8BD002A00F01D
:104F20009E80504BDB68C3F3021301334268934207
:104F300001D00125F0E7002509E00368022B57D0D6
:104F4000032B5CD0012B42D00125002DE4D1454A32
:104F5000136823F080631360FEF710FB0646414B95
:104F60001B6813F0006F05D0FEF708FB831B022BB4
:104F7000F5D90325002DCFD1002F4ED139490B692A
:104F800023F41F3323F44073A068E268120952042B
:104F900042EA002213430B61324A136843F08063F4
:104FA0001360FEF7EBFA06462E4B1B6813F0006FFA
:104FB00005D1FEF7E3FA831B022BF5D90325002D5B
:104FC000AAD1284A1369A1690B431361A4E7254AB2
:104FD000126812F0020F1ED02248C26822F073023B
:104FE0006168013943EA01131343C3600025ACE74C
:104FF0001C4A126812F4806FEED10125A5E7194A08
:10500000126812F4003FE7D1164A126812F4802F9A
:10501000E2D1012599E7012597E7012F0FD011482B
:10502000026922F0C06222F4FE42A16863695B0853
:10503000013B5B0643EA012313430361ACE70948E4
:10504000026922F4C00222F4FE42A16823695B08CF
:10505000013B5B0543EA0123134303619CE7012500
:105060005AE700BF00100240F8B504460F46504B07
:10507000DB6813F0030F18D04D4BDB6803F003031C
:105080000268934202D001252846F8BD002A00F0AC
:105090008C80474BDB68C3F30213013342689342B1
:1050A00001D00125F0E7002509E00368022B57D065
:1050B000032B5CD0012B42D00125002DE4D13C4ACA
:1050C000136823F080531360FEF758FA0646384BF6
:1050D0001B6813F0005F05D0FEF750FA831B022B0C
:1050E000F5D90325002DCFD1002F4ED130494B6982
:1050F00023F41F3323F44073A068E26812095204BA
:1051000042EA002213434B61294A136843F080535B
:105110001360FEF733FA0646254B1B6813F0005F59
:1051200005D1FEF72BFA831B022BF5D90325002DA1
:10513000AAD11F4A536961690B435361A4E71C4A12
:10514000126812F0020F1ED01948C26822F07302D2
:105150006168013943EA01131343C3600025ACE7DA
:10516000134A126812F4806FEED10125A5E7104AA8
:10517000126812F4003FE7D10D4A126812F4802F32
:10518000E2D1012599E7012597E70948426922F014
:10519000C06222F4FE42A16823695B08013B5B0602
:1051A00043EA012313434361AEE701256CE700BFE7
:1051B000001002402DE9F04182B00446036813F468
:1051C000006F33D0436EB3F5000F1FD00CD823B35C
:1051D000B3F5800F05D100212030FFF745FF0646CB
:1051E00020E001273E4623E0B3F5400F0BD1002617
:1051F000604AD2F8883023F44003616E0B43C2F852
:105200008830002714E001273E4611E0594AD36850
:1052100043F48033D3600026EAE700210430FFF72F
:105220006BFE0646002EE3D0374601E000273E46DF
:10523000236813F4805F30D0A36EB3F1007F1FD0DA
:105240000DD81BB3B3F1807F06D1002104F12000FB
:10525000FFF70AFF064605E001273E461DE0B3F1D1
:10526000407F0AD1C6B9434AD2F8883023F0407350
:10527000A16E0B43C2F888300FE001273E460CE0D8
:105280003C4AD36843F48033D360EBE70021201D10
:10529000FFF732FE0646E5E73746236813F4003F82
:1052A00071D0344B9B6D13F0805F4ED1314B9A6DB2
:1052B00042F080529A659B6D03F080530193019BED
:1052C0004FF001082C4A136843F480731360FEF713
:1052D00055F90546284B1B6813F4807F05D1FEF76E
:1052E0004DF9401B0228F5D90326002E46D1214B4B
:1052F000D3F8903013F4407316D0D4F884209A4237
:1053000012D01C4AD2F8903023F44073D2F8901097
:1053100041F48031C2F89010D2F8901021F480311D
:10532000C2F89010C2F8903013F0010F10D1002E87
:1053300040F027810F4AD2F8903023F44073D4F81C
:1053400084100B43C2F8903019E04FF00008B9E721
:10535000FEF714F90546074BD3F8903013F0020F0F
:10536000E5D1FEF70BF9401B41F288339842F2D9A0
:105370000326DCE700100240007000403746B8F119
:10538000000F40F00081236813F0010F08D09D4A00
:10539000D2F8883023F00303A16B0B43C2F88830A6
:1053A000236813F0020F08D0964AD2F8883023F011
:1053B0000C03E16B0B43C2F88830236813F0040F31
:1053C00008D0904AD2F8883023F03003216C0B4388
:1053D000C2F88830236813F0080F08D0894AD2F841
:1053E000883023F0C003616C0B43C2F88830236817
:1053F00013F0100F08D0834AD2F8883023F440739A
:10540000A16C0B43C2F88830236813F0200F08D03A
:105410007C4AD2F8883023F44063E16C0B43C2F835
:105420008830236813F4007F08D0764AD2F8883099
:1054300023F44023E16D0B43C2F88830236813F452
:10544000806F08D06F4AD2F8883023F44013216E61
:105450000B43C2F88830236813F0400F08D0694A24
:10546000D2F8883023F44053216D0B43C2F88830C2
:10547000236813F0800F08D0624AD2F8883023F4F2
:105480004043616D0B43C2F88830236813F4807F7A
:1054900008D05C4AD2F8883023F44033A16D0B4326
:1054A000C2F88830236813F4005F0FD0554AD2F851
:1054B000883023F04063E16E0B43C2F88830E36E1E
:1054C000B3F1006F65D0B3F1806F67D0236813F438
:1054D000002F0FD04B4AD2F8883023F04063216F61
:1054E0000B43C2F88830236FB3F1006F5ED0B3F185
:1054F000806F60D0236813F4802F0FD0414AD2F818
:10550000883023F04063616F0B43C2F88830636FCB
:10551000B3F1006F57D0B3F1806F59D0236813F403
:10552000804F0FD0374AD2F8883023F04053A16F14
:105530000B43C2F88830A36FB3F1805F50D0B3F152
:10554000005F55D0236813F4004F08D02D4AD2F8DD
:10555000883023F08043E16F0B43C2F88830236822
:1055600013F4803F09D0274AD2F8883023F0004353
:10557000D4F880100B43C2F88830384602B0BDE83A
:10558000F0813746FBE61F4A936D23F08053936505
:10559000F9E6D36843F48013D36097E70121201D17
:1055A000FFF7AAFC002891D007468FE7D36843F4A1
:1055B0008013D3609EE70121201DFFF79DFC00288A
:1055C00098D0074696E7D36843F48013D360A5E7E5
:1055D0000121201DFFF790FC00289FD007469DE782
:1055E0000221201DFFF788FC0028ABD00746A9E761
:1055F000022104F12000FFF737FD0028A2D0074662
:10560000A0E700BF001002402DE9F04782B0054638
:10561000884617461E46FDF7B1FF0A9B1B1A03EB8F
:105620000609FDF7ABFF82462B4B1B68C3F3CB3358
:1056300009FB03F301932B689C6838EA04030CBF51
:105640004FF0010C4FF0000CBC4540D0B6F1FF3FCD
:10565000F1D0FDF793FFA0EB0A0048450AD2B9F15B
:10566000000F07D0019A02B14A46019B013B01930A
:105670009146E0E72A68536823F0E00353606B68C3
:10568000B3F5827F0BD0AB6AB3F5005F14D0012372
:1056900085F85D30002385F85C30032018E0AB68A6
:1056A000B3F5004F02D0B3F5806FECD12A681368D0
:1056B00023F040031360E6E72A68136823F40053DD
:1056C00013602A68136843F400531360DFE7002077
:1056D00002B0BDE8F08700BFF80300202DE9F047D5
:1056E00082B007460D4616469846FDF747FF0A9BCF
:1056F0001B1A03EB0809FDF741FF82462E4B1B687E
:1057000003EB8303C3EBC3031B0D09FB03F30193FB
:1057100002E0B8F1FF3F0CD13B689C6804EA050C3D
:10572000B44544D0B5F5C06FF3D1002EF1D11B7B49
:10573000EFE7FDF723FFA0EB0A0048450AD2B9F1D5
:10574000000F07D0019A02B14A46019B013B019329
:105750009146E1E73A68536823F0E00353607B68C1
:10576000B3F5827F0BD0BB6AB3F5005F14D0012381
:1057700087F85D30002387F85C30032018E0BB68B1
:10578000B3F5004F02D0B3F5806FECD13A681368DF
:1057900023F040031360E6E73A68136823F40053EC
:1057A00013603A68136843F400531360DFE7002086
:1057B00002B0BDE8F08700BFF803002070B582B0EA
:1057C00004460D46164600920B4600224FF4C05187
:1057D000FFF784FFB0B900962B46002280212046B7
:1057E000FFF712FFA8B900962B4600224FF4C061C4
:1057F0002046FFF773FF50B1236E43F0200323666A
:10580000032004E0236E43F020032366032002B04C
:1058100070BD236E43F0200323660320F7E70028C2
:105820006AD010B50446436A33B94368B3F5827F42
:1058300005D00023C36102E000230361436100231C
:10584000A36294F85D30002B4DD0022384F85D30C4
:105850002268136823F040031360E368B3F5E06F38
:1058600047D90022B3F5706F04D0B3F5E06F01D0D3
:105870000023A362636803F48273A16801F4044106
:105880000B43216901F002010B43616901F0010141
:105890000B43A16901F400710B43E16901F0380188
:1058A0000B43216A01F080010B43A16A01F400510E
:1058B00020680B430360638B03F00403616A01F00B
:1058C00010010B43616B01F008010B43E16801F427
:1058D00070610B43216813434B6000202066012355
:1058E00084F85D3010BD84F85C302046FCF7B6FECD
:1058F000ABE74FF48052B5E7012070472DE9F04344
:1059000083B01D4690F85C30012B00F0F680044611
:1059100088469146012380F85C30FDF72FFE07464C
:1059200094F85D60F6B2012E40F0D480B8F1000F1B
:1059300000F0D180B9F1000F00F0CD80032384F88E
:105940005D3000232366C4F83880A4F83C90A4F8A6
:105950003E902364A4F84430A4F846302365E36401
:10596000A368B3F5004F1ED023681A6812F0400FE9
:1059700003D11A6842F040021A60E368B3F5E06FA1
:1059800042D9636813B1B9F1010F23D1A26B236827
:105990001288DA60A36B0233A363E38F9BB2013BEF
:1059A0009BB2E38716E02268136823F0400313607C
:1059B0002268136843F480431360D5E7FDF7DEFDEA
:1059C000C01BA84203D3B5F1FF3F40F08E80002DED
:1059D00000F08D80E38F9BB2002B66D023689A681D
:1059E00012F0020FEAD0A26B1288DA60A36B0233C6
:1059F000A363B4F83EC01FFA8CFC0CF1FF3C1FFA05
:105A00008CFCA4F83EC0E5E7636813B1B9F1010F5F
:105A100033D1E38F9BB2012B0CD9A26B2368128880
:105A2000DA60A36B0233A363E38F9BB2023B9BB2AA
:105A3000E38722E0A26B236812781A73A36B013309
:105A4000A363E38F9BB2013B9BB2E38715E0A36B9B
:105A50001B781373A36B0133A363E38F9BB2013BEA
:105A60009BB2E38709E0FDF789FDC01BA84202D382
:105A7000B5F1FF3F3DD1002D3DD0E38F9BB2A3B1E7
:105A80002268936813F0020FEDD0E38F9BB2012BD5
:105A9000DDD9A36B1B88D360A36B0233A363E38FB1
:105AA0009BB2023B9BB2E387E7E73A462946204692
:105AB000FFF784FE08B120232366A36833B901935E
:105AC0002368DA6801929B680193019B236E13B9E6
:105AD000002600E00226012384F85D30002384F8CC
